{
  "_format": "hh-sol-artifact-1",
  "contractName": "OLDprjctx",
  "sourceName": "contracts/OLDprjctx.sol",
  "abi": [
    {
      "inputs": [],
      "stateMutability": "nonpayable",
      "type": "constructor"
    },
    {
      "anonymous": false,
      "inputs": [
        {
          "indexed": true,
          "internalType": "address",
          "name": "owner",
          "type": "address"
        },
        {
          "indexed": true,
          "internalType": "address",
          "name": "approved",
          "type": "address"
        },
        {
          "indexed": true,
          "internalType": "uint256",
          "name": "tokenId",
          "type": "uint256"
        }
      ],
      "name": "Approval",
      "type": "event"
    },
    {
      "anonymous": false,
      "inputs": [
        {
          "indexed": true,
          "internalType": "address",
          "name": "owner",
          "type": "address"
        },
        {
          "indexed": true,
          "internalType": "address",
          "name": "operator",
          "type": "address"
        },
        {
          "indexed": false,
          "internalType": "bool",
          "name": "approved",
          "type": "bool"
        }
      ],
      "name": "ApprovalForAll",
      "type": "event"
    },
    {
      "anonymous": false,
      "inputs": [
        {
          "indexed": true,
          "internalType": "address",
          "name": "previousOwner",
          "type": "address"
        },
        {
          "indexed": true,
          "internalType": "address",
          "name": "newOwner",
          "type": "address"
        }
      ],
      "name": "OwnershipTransferred",
      "type": "event"
    },
    {
      "anonymous": false,
      "inputs": [
        {
          "indexed": true,
          "internalType": "address",
          "name": "from",
          "type": "address"
        },
        {
          "indexed": true,
          "internalType": "address",
          "name": "to",
          "type": "address"
        },
        {
          "indexed": true,
          "internalType": "uint256",
          "name": "tokenId",
          "type": "uint256"
        }
      ],
      "name": "Transfer",
      "type": "event"
    },
    {
      "inputs": [
        {
          "internalType": "address",
          "name": "to",
          "type": "address"
        },
        {
          "internalType": "uint256",
          "name": "tokenId",
          "type": "uint256"
        }
      ],
      "name": "approve",
      "outputs": [],
      "stateMutability": "nonpayable",
      "type": "function"
    },
    {
      "inputs": [
        {
          "internalType": "address",
          "name": "owner",
          "type": "address"
        }
      ],
      "name": "balanceOf",
      "outputs": [
        {
          "internalType": "uint256",
          "name": "",
          "type": "uint256"
        }
      ],
      "stateMutability": "view",
      "type": "function"
    },
    {
      "inputs": [],
      "name": "cost",
      "outputs": [
        {
          "internalType": "uint256",
          "name": "",
          "type": "uint256"
        }
      ],
      "stateMutability": "view",
      "type": "function"
    },
    {
      "inputs": [
        {
          "internalType": "uint256",
          "name": "tokenId",
          "type": "uint256"
        }
      ],
      "name": "getApproved",
      "outputs": [
        {
          "internalType": "address",
          "name": "",
          "type": "address"
        }
      ],
      "stateMutability": "view",
      "type": "function"
    },
    {
      "inputs": [],
      "name": "hiddenMetadataUri",
      "outputs": [
        {
          "internalType": "string",
          "name": "",
          "type": "string"
        }
      ],
      "stateMutability": "view",
      "type": "function"
    },
    {
      "inputs": [
        {
          "internalType": "address",
          "name": "owner",
          "type": "address"
        },
        {
          "internalType": "address",
          "name": "operator",
          "type": "address"
        }
      ],
      "name": "isApprovedForAll",
      "outputs": [
        {
          "internalType": "bool",
          "name": "",
          "type": "bool"
        }
      ],
      "stateMutability": "view",
      "type": "function"
    },
    {
      "inputs": [
        {
          "internalType": "address",
          "name": "_user",
          "type": "address"
        }
      ],
      "name": "isWhitelisted",
      "outputs": [
        {
          "internalType": "bool",
          "name": "",
          "type": "bool"
        }
      ],
      "stateMutability": "view",
      "type": "function"
    },
    {
      "inputs": [],
      "name": "maxMintAmountPerTx",
      "outputs": [
        {
          "internalType": "uint256",
          "name": "",
          "type": "uint256"
        }
      ],
      "stateMutability": "view",
      "type": "function"
    },
    {
      "inputs": [],
      "name": "maxSupply",
      "outputs": [
        {
          "internalType": "uint256",
          "name": "",
          "type": "uint256"
        }
      ],
      "stateMutability": "view",
      "type": "function"
    },
    {
      "inputs": [
        {
          "internalType": "uint256",
          "name": "_mintAmount",
          "type": "uint256"
        }
      ],
      "name": "mint",
      "outputs": [],
      "stateMutability": "payable",
      "type": "function"
    },
    {
      "inputs": [
        {
          "internalType": "uint256",
          "name": "_mintAmount",
          "type": "uint256"
        },
        {
          "internalType": "address",
          "name": "_receiver",
          "type": "address"
        }
      ],
      "name": "mintForAddress",
      "outputs": [],
      "stateMutability": "nonpayable",
      "type": "function"
    },
    {
      "inputs": [],
      "name": "name",
      "outputs": [
        {
          "internalType": "string",
          "name": "",
          "type": "string"
        }
      ],
      "stateMutability": "view",
      "type": "function"
    },
    {
      "inputs": [],
      "name": "onlyWhitelisted",
      "outputs": [
        {
          "internalType": "bool",
          "name": "",
          "type": "bool"
        }
      ],
      "stateMutability": "view",
      "type": "function"
    },
    {
      "inputs": [],
      "name": "owner",
      "outputs": [
        {
          "internalType": "address",
          "name": "",
          "type": "address"
        }
      ],
      "stateMutability": "view",
      "type": "function"
    },
    {
      "inputs": [
        {
          "internalType": "uint256",
          "name": "tokenId",
          "type": "uint256"
        }
      ],
      "name": "ownerOf",
      "outputs": [
        {
          "internalType": "address",
          "name": "",
          "type": "address"
        }
      ],
      "stateMutability": "view",
      "type": "function"
    },
    {
      "inputs": [],
      "name": "paused",
      "outputs": [
        {
          "internalType": "bool",
          "name": "",
          "type": "bool"
        }
      ],
      "stateMutability": "view",
      "type": "function"
    },
    {
      "inputs": [],
      "name": "renounceOwnership",
      "outputs": [],
      "stateMutability": "nonpayable",
      "type": "function"
    },
    {
      "inputs": [],
      "name": "revealed",
      "outputs": [
        {
          "internalType": "bool",
          "name": "",
          "type": "bool"
        }
      ],
      "stateMutability": "view",
      "type": "function"
    },
    {
      "inputs": [
        {
          "internalType": "address",
          "name": "from",
          "type": "address"
        },
        {
          "internalType": "address",
          "name": "to",
          "type": "address"
        },
        {
          "internalType": "uint256",
          "name": "tokenId",
          "type": "uint256"
        }
      ],
      "name": "safeTransferFrom",
      "outputs": [],
      "stateMutability": "nonpayable",
      "type": "function"
    },
    {
      "inputs": [
        {
          "internalType": "address",
          "name": "from",
          "type": "address"
        },
        {
          "internalType": "address",
          "name": "to",
          "type": "address"
        },
        {
          "internalType": "uint256",
          "name": "tokenId",
          "type": "uint256"
        },
        {
          "internalType": "bytes",
          "name": "_data",
          "type": "bytes"
        }
      ],
      "name": "safeTransferFrom",
      "outputs": [],
      "stateMutability": "nonpayable",
      "type": "function"
    },
    {
      "inputs": [
        {
          "internalType": "address",
          "name": "operator",
          "type": "address"
        },
        {
          "internalType": "bool",
          "name": "approved",
          "type": "bool"
        }
      ],
      "name": "setApprovalForAll",
      "outputs": [],
      "stateMutability": "nonpayable",
      "type": "function"
    },
    {
      "inputs": [
        {
          "internalType": "uint256",
          "name": "_cost",
          "type": "uint256"
        }
      ],
      "name": "setCost",
      "outputs": [],
      "stateMutability": "nonpayable",
      "type": "function"
    },
    {
      "inputs": [
        {
          "internalType": "string",
          "name": "_hiddenMetadataUri",
          "type": "string"
        }
      ],
      "name": "setHiddenMetadataUri",
      "outputs": [],
      "stateMutability": "nonpayable",
      "type": "function"
    },
    {
      "inputs": [
        {
          "internalType": "uint256",
          "name": "_maxMintAmountPerTx",
          "type": "uint256"
        }
      ],
      "name": "setMaxMintAmountPerTx",
      "outputs": [],
      "stateMutability": "nonpayable",
      "type": "function"
    },
    {
      "inputs": [
        {
          "internalType": "bool",
          "name": "_state",
          "type": "bool"
        }
      ],
      "name": "setOnlyWhitelisted",
      "outputs": [],
      "stateMutability": "nonpayable",
      "type": "function"
    },
    {
      "inputs": [
        {
          "internalType": "bool",
          "name": "_state",
          "type": "bool"
        }
      ],
      "name": "setPaused",
      "outputs": [],
      "stateMutability": "nonpayable",
      "type": "function"
    },
    {
      "inputs": [
        {
          "internalType": "bool",
          "name": "_state",
          "type": "bool"
        }
      ],
      "name": "setRevealed",
      "outputs": [],
      "stateMutability": "nonpayable",
      "type": "function"
    },
    {
      "inputs": [
        {
          "internalType": "string",
          "name": "_uriPrefix",
          "type": "string"
        }
      ],
      "name": "setUriPrefix",
      "outputs": [],
      "stateMutability": "nonpayable",
      "type": "function"
    },
    {
      "inputs": [
        {
          "internalType": "string",
          "name": "_uriSuffix",
          "type": "string"
        }
      ],
      "name": "setUriSuffix",
      "outputs": [],
      "stateMutability": "nonpayable",
      "type": "function"
    },
    {
      "inputs": [
        {
          "internalType": "bytes4",
          "name": "interfaceId",
          "type": "bytes4"
        }
      ],
      "name": "supportsInterface",
      "outputs": [
        {
          "internalType": "bool",
          "name": "",
          "type": "bool"
        }
      ],
      "stateMutability": "view",
      "type": "function"
    },
    {
      "inputs": [],
      "name": "symbol",
      "outputs": [
        {
          "internalType": "string",
          "name": "",
          "type": "string"
        }
      ],
      "stateMutability": "view",
      "type": "function"
    },
    {
      "inputs": [
        {
          "internalType": "uint256",
          "name": "_tokenId",
          "type": "uint256"
        }
      ],
      "name": "tokenURI",
      "outputs": [
        {
          "internalType": "string",
          "name": "",
          "type": "string"
        }
      ],
      "stateMutability": "view",
      "type": "function"
    },
    {
      "inputs": [],
      "name": "totalSupply",
      "outputs": [
        {
          "internalType": "uint256",
          "name": "",
          "type": "uint256"
        }
      ],
      "stateMutability": "view",
      "type": "function"
    },
    {
      "inputs": [
        {
          "internalType": "address",
          "name": "from",
          "type": "address"
        },
        {
          "internalType": "address",
          "name": "to",
          "type": "address"
        },
        {
          "internalType": "uint256",
          "name": "tokenId",
          "type": "uint256"
        }
      ],
      "name": "transferFrom",
      "outputs": [],
      "stateMutability": "nonpayable",
      "type": "function"
    },
    {
      "inputs": [
        {
          "internalType": "address",
          "name": "newOwner",
          "type": "address"
        }
      ],
      "name": "transferOwnership",
      "outputs": [],
      "stateMutability": "nonpayable",
      "type": "function"
    },
    {
      "inputs": [],
      "name": "uriPrefix",
      "outputs": [
        {
          "internalType": "string",
          "name": "",
          "type": "string"
        }
      ],
      "stateMutability": "view",
      "type": "function"
    },
    {
      "inputs": [],
      "name": "uriSuffix",
      "outputs": [
        {
          "internalType": "string",
          "name": "",
          "type": "string"
        }
      ],
      "stateMutability": "view",
      "type": "function"
    },
    {
      "inputs": [
        {
          "internalType": "address",
          "name": "_owner",
          "type": "address"
        }
      ],
      "name": "walletOfOwner",
      "outputs": [
        {
          "internalType": "uint256[]",
          "name": "",
          "type": "uint256[]"
        }
      ],
      "stateMutability": "view",
      "type": "function"
    },
    {
      "inputs": [
        {
          "internalType": "address[]",
          "name": "_users",
          "type": "address[]"
        }
      ],
      "name": "whitelistUsers",
      "outputs": [],
      "stateMutability": "nonpayable",
      "type": "function"
    },
    {
      "inputs": [
        {
          "internalType": "uint256",
          "name": "",
          "type": "uint256"
        }
      ],
      "name": "whitelistedAddresses",
      "outputs": [
        {
          "internalType": "address",
          "name": "",
          "type": "address"
        }
      ],
      "stateMutability": "view",
      "type": "function"
    },
    {
      "inputs": [],
      "name": "withdraw",
      "outputs": [],
      "stateMutability": "payable",
      "type": "function"
    }
  ],
  "bytecode": "0x60a06040819052600060808190526200001b9160089162000212565b5060408051808201909152600580825264173539b7b760d91b60209092019182526200004a9160099162000212565b5067016345785d8a0000600b556107e6600c556014600d55600e805462ffffff191660011790553480156200007e57600080fd5b5060408051808201825260078152660a0a49486a85ab60cb1b6020808301918252835180850190945260068452650a0a49486a8b60d31b908401528151919291620000cc9160009162000212565b508051620000e290600190602084019062000212565b505050620000ff620000f96200014460201b60201c565b62000148565b60408051808201909152601a81527f697066733a2f2f5f5f4349445f5f2f68696464656e2e6a736f6e00000000000060208201526200013e906200019a565b620002f5565b3390565b600680546001600160a01b038381166001600160a01b0319831681179093556040519116919082907f8be0079c531659141344cd1fd0a4f28419497f9722a3daafe3b4186f6b6457e090600090a35050565b6006546001600160a01b03163314620001f95760405162461bcd60e51b815260206004820181905260248201527f4f776e61626c653a2063616c6c6572206973206e6f7420746865206f776e6572604482015260640160405180910390fd5b80516200020e90600a90602084019062000212565b5050565b8280546200022090620002b8565b90600052602060002090601f0160209004810192826200024457600085556200028f565b82601f106200025f57805160ff19168380011785556200028f565b828001600101855582156200028f579182015b828111156200028f57825182559160200191906001019062000272565b506200029d929150620002a1565b5090565b5b808211156200029d5760008155600101620002a2565b600181811c90821680620002cd57607f821691505b60208210811415620002ef57634e487b7160e01b600052602260045260246000fd5b50919050565b612a3580620003056000396000f3fe6080604052600436106102c65760003560e01c80636352211e11610179578063a45ba8e7116100d6578063d5abeb011161008a578063edec5f2711610064578063edec5f2714610772578063efbd73f414610792578063f2fde38b146107b257600080fd5b8063d5abeb01146106f3578063e0a8085314610709578063e985e9c51461072957600080fd5b8063b88d4fde116100bb578063b88d4fde14610693578063ba4e5c49146106b3578063c87b56dd146106d357600080fd5b8063a45ba8e71461065e578063b071401b1461067357600080fd5b806394354fd01161012d5780639c70b512116101125780639c70b5121461060b578063a0712d681461062b578063a22cb4651461063e57600080fd5b806394354fd0146105e057806395d89b41146105f657600080fd5b8063715018a61161015e578063715018a61461058d5780637ec4a659146105a25780638da5cb5b146105c257600080fd5b80636352211e1461054d57806370a082311461056d57600080fd5b80633c952764116102275780634fdd43cb116101db5780635503a0e8116101c05780635503a0e8146105095780635c975abb1461051e57806362b99ad41461053857600080fd5b80634fdd43cb146104ca57806351830227146104ea57600080fd5b806342842e0e1161020c57806342842e0e1461045d578063438b63001461047d57806344a0d68a146104aa57600080fd5b80633c952764146104355780633ccfd60b1461045557600080fd5b806316ba10e01161027e57806318160ddd1161026357806318160ddd146103e057806323b872dd146103f55780633af32abf1461041557600080fd5b806316ba10e0146103a057806316c38b3c146103c057600080fd5b8063081812fc116102af578063081812fc14610322578063095ea7b31461035a57806313faede61461037c57600080fd5b806301ffc9a7146102cb57806306fdde0314610300575b600080fd5b3480156102d757600080fd5b506102eb6102e63660046123c1565b6107d2565b60405190151581526020015b60405180910390f35b34801561030c57600080fd5b50610315610824565b6040516102f79190612436565b34801561032e57600080fd5b5061034261033d366004612449565b6108b6565b6040516001600160a01b0390911681526020016102f7565b34801561036657600080fd5b5061037a61037536600461247e565b610950565b005b34801561038857600080fd5b50610392600b5481565b6040519081526020016102f7565b3480156103ac57600080fd5b5061037a6103bb366004612534565b610a66565b3480156103cc57600080fd5b5061037a6103db36600461258d565b610ac5565b3480156103ec57600080fd5b50610392610b20565b34801561040157600080fd5b5061037a6104103660046125a8565b610b30565b34801561042157600080fd5b506102eb6104303660046125e4565b610bb7565b34801561044157600080fd5b5061037a61045036600461258d565b610c21565b61037a610c85565b34801561046957600080fd5b5061037a6104783660046125a8565b610d41565b34801561048957600080fd5b5061049d6104983660046125e4565b610d5c565b6040516102f791906125ff565b3480156104b657600080fd5b5061037a6104c5366004612449565b610e3d565b3480156104d657600080fd5b5061037a6104e5366004612534565b610e8a565b3480156104f657600080fd5b50600e546102eb90610100900460ff1681565b34801561051557600080fd5b50610315610ee5565b34801561052a57600080fd5b50600e546102eb9060ff1681565b34801561054457600080fd5b50610315610f73565b34801561055957600080fd5b50610342610568366004612449565b610f80565b34801561057957600080fd5b506103926105883660046125e4565b61100b565b34801561059957600080fd5b5061037a6110a5565b3480156105ae57600080fd5b5061037a6105bd366004612534565b6110f9565b3480156105ce57600080fd5b506006546001600160a01b0316610342565b3480156105ec57600080fd5b50610392600d5481565b34801561060257600080fd5b50610315611154565b34801561061757600080fd5b50600e546102eb9062010000900460ff1681565b61037a610639366004612449565b611163565b34801561064a57600080fd5b5061037a610659366004612643565b61135e565b34801561066a57600080fd5b50610315611369565b34801561067f57600080fd5b5061037a61068e366004612449565b611376565b34801561069f57600080fd5b5061037a6106ae366004612676565b6113c3565b3480156106bf57600080fd5b506103426106ce366004612449565b611451565b3480156106df57600080fd5b506103156106ee366004612449565b61147b565b3480156106ff57600080fd5b50610392600c5481565b34801561071557600080fd5b5061037a61072436600461258d565b611608565b34801561073557600080fd5b506102eb6107443660046126f2565b6001600160a01b03918216600090815260056020908152604080832093909416825291909152205460ff1690565b34801561077e57600080fd5b5061037a61078d36600461271c565b61166a565b34801561079e57600080fd5b5061037a6107ad366004612791565b611708565b3480156107be57600080fd5b5061037a6107cd3660046125e4565b61181e565b60006001600160e01b031982166380ac58cd60e01b148061080357506001600160e01b03198216635b5e139f60e01b145b8061081e57506301ffc9a760e01b6001600160e01b03198316145b92915050565b606060008054610833906127b4565b80601f016020809104026020016040519081016040528092919081815260200182805461085f906127b4565b80156108ac5780601f10610881576101008083540402835291602001916108ac565b820191906000526020600020905b81548152906001019060200180831161088f57829003601f168201915b5050505050905090565b6000818152600260205260408120546001600160a01b03166109345760405162461bcd60e51b815260206004820152602c60248201527f4552433732313a20617070726f76656420717565727920666f72206e6f6e657860448201526b34b9ba32b73a103a37b5b2b760a11b60648201526084015b60405180910390fd5b506000908152600460205260409020546001600160a01b031690565b600061095b82610f80565b9050806001600160a01b0316836001600160a01b031614156109c95760405162461bcd60e51b815260206004820152602160248201527f4552433732313a20617070726f76616c20746f2063757272656e74206f776e656044820152603960f91b606482015260840161092b565b336001600160a01b03821614806109e557506109e58133610744565b610a575760405162461bcd60e51b815260206004820152603860248201527f4552433732313a20617070726f76652063616c6c6572206973206e6f74206f7760448201527f6e6572206e6f7220617070726f76656420666f7220616c6c0000000000000000606482015260840161092b565b610a6183836118eb565b505050565b6006546001600160a01b03163314610aae5760405162461bcd60e51b815260206004820181905260248201526000805160206129e0833981519152604482015260640161092b565b8051610ac19060099060208401906122a1565b5050565b6006546001600160a01b03163314610b0d5760405162461bcd60e51b815260206004820181905260248201526000805160206129e0833981519152604482015260640161092b565b600e805460ff1916911515919091179055565b6000610b2b60075490565b905090565b610b3a3382611959565b610bac5760405162461bcd60e51b815260206004820152603160248201527f4552433732313a207472616e736665722063616c6c6572206973206e6f74206f60448201527f776e6572206e6f7220617070726f766564000000000000000000000000000000606482015260840161092b565b610a61838383611a50565b6000805b600f54811015610c1857826001600160a01b0316600f8281548110610be257610be26127ef565b6000918252602090912001546001600160a01b03161415610c065750600192915050565b80610c108161281b565b915050610bbb565b50600092915050565b6006546001600160a01b03163314610c695760405162461bcd60e51b815260206004820181905260248201526000805160206129e0833981519152604482015260640161092b565b600e8054911515620100000262ff000019909216919091179055565b6006546001600160a01b03163314610ccd5760405162461bcd60e51b815260206004820181905260248201526000805160206129e0833981519152604482015260640161092b565b6000610ce16006546001600160a01b031690565b6001600160a01b03164760405160006040518083038185875af1925050503d8060008114610d2b576040519150601f19603f3d011682016040523d82523d6000602084013e610d30565b606091505b5050905080610d3e57600080fd5b50565b610a61838383604051806020016040528060008152506113c3565b60606000610d698361100b565b905060008167ffffffffffffffff811115610d8657610d866124a8565b604051908082528060200260200182016040528015610daf578160200160208202803683370190505b509050600160005b8381108015610dc85750600c548211155b15610e33576000610dd883610f80565b9050866001600160a01b0316816001600160a01b03161415610e205782848381518110610e0757610e076127ef565b602090810291909101015281610e1c8161281b565b9250505b82610e2a8161281b565b93505050610db7565b5090949350505050565b6006546001600160a01b03163314610e855760405162461bcd60e51b815260206004820181905260248201526000805160206129e0833981519152604482015260640161092b565b600b55565b6006546001600160a01b03163314610ed25760405162461bcd60e51b815260206004820181905260248201526000805160206129e0833981519152604482015260640161092b565b8051610ac190600a9060208401906122a1565b60098054610ef2906127b4565b80601f0160208091040260200160405190810160405280929190818152602001828054610f1e906127b4565b8015610f6b5780601f10610f4057610100808354040283529160200191610f6b565b820191906000526020600020905b815481529060010190602001808311610f4e57829003601f168201915b505050505081565b60088054610ef2906127b4565b6000818152600260205260408120546001600160a01b03168061081e5760405162461bcd60e51b815260206004820152602960248201527f4552433732313a206f776e657220717565727920666f72206e6f6e657869737460448201527f656e7420746f6b656e0000000000000000000000000000000000000000000000606482015260840161092b565b60006001600160a01b0382166110895760405162461bcd60e51b815260206004820152602a60248201527f4552433732313a2062616c616e636520717565727920666f7220746865207a6560448201527f726f206164647265737300000000000000000000000000000000000000000000606482015260840161092b565b506001600160a01b031660009081526003602052604090205490565b6006546001600160a01b031633146110ed5760405162461bcd60e51b815260206004820181905260248201526000805160206129e0833981519152604482015260640161092b565b6110f76000611c04565b565b6006546001600160a01b031633146111415760405162461bcd60e51b815260206004820181905260248201526000805160206129e0833981519152604482015260640161092b565b8051610ac19060089060208401906122a1565b606060018054610833906127b4565b806000811180156111765750600d548111155b6111c25760405162461bcd60e51b815260206004820152601460248201527f496e76616c6964206d696e7420616d6f756e7421000000000000000000000000604482015260640161092b565b600c54816111cf60075490565b6111d99190612836565b11156112275760405162461bcd60e51b815260206004820152601460248201527f4d617820737570706c7920657863656564656421000000000000000000000000604482015260640161092b565b600e5460ff161561127a5760405162461bcd60e51b815260206004820152601660248201527f74686520636f6e74726163742069732070617573656400000000000000000000604482015260640161092b565b6006546001600160a01b0316331461135457600e5462010000900460ff161515600114156112f7576112ab33610bb7565b6112f75760405162461bcd60e51b815260206004820152601760248201527f75736572206973206e6f742077686974656c6973746564000000000000000000604482015260640161092b565b81600b54611305919061284e565b3410156113545760405162461bcd60e51b815260206004820152601260248201527f696e73756666696369656e742066756e64730000000000000000000000000000604482015260640161092b565b610ac13383611c56565b610ac1338383611c93565b600a8054610ef2906127b4565b6006546001600160a01b031633146113be5760405162461bcd60e51b815260206004820181905260248201526000805160206129e0833981519152604482015260640161092b565b600d55565b6113cd3383611959565b61143f5760405162461bcd60e51b815260206004820152603160248201527f4552433732313a207472616e736665722063616c6c6572206973206e6f74206f60448201527f776e6572206e6f7220617070726f766564000000000000000000000000000000606482015260840161092b565b61144b84848484611d62565b50505050565b600f818154811061146157600080fd5b6000918252602090912001546001600160a01b0316905081565b6000818152600260205260409020546060906001600160a01b03166115085760405162461bcd60e51b815260206004820152602f60248201527f4552433732314d657461646174613a2055524920717565727920666f72206e6f60448201527f6e6578697374656e7420746f6b656e0000000000000000000000000000000000606482015260840161092b565b600e54610100900460ff166115a957600a8054611524906127b4565b80601f0160208091040260200160405190810160405280929190818152602001828054611550906127b4565b801561159d5780601f106115725761010080835404028352916020019161159d565b820191906000526020600020905b81548152906001019060200180831161158057829003601f168201915b50505050509050919050565b60006115b3611de0565b905060008151116115d35760405180602001604052806000815250611601565b806115dd84611def565b60096040516020016115f19392919061286d565b6040516020818303038152906040525b9392505050565b6006546001600160a01b031633146116505760405162461bcd60e51b815260206004820181905260248201526000805160206129e0833981519152604482015260640161092b565b600e80549115156101000261ff0019909216919091179055565b6006546001600160a01b031633146116b25760405162461bcd60e51b815260206004820181905260248201526000805160206129e0833981519152604482015260640161092b565b6116f06040518060400160405280601681526020017f4368616e67696e672077686974656c697374206e6f7700000000000000000000815250611f05565b6116fc600f6000612325565b610a61600f8383612343565b8160008111801561171b5750600d548111155b6117675760405162461bcd60e51b815260206004820152601460248201527f496e76616c6964206d696e7420616d6f756e7421000000000000000000000000604482015260640161092b565b600c548161177460075490565b61177e9190612836565b11156117cc5760405162461bcd60e51b815260206004820152601460248201527f4d617820737570706c7920657863656564656421000000000000000000000000604482015260640161092b565b6006546001600160a01b031633146118145760405162461bcd60e51b815260206004820181905260248201526000805160206129e0833981519152604482015260640161092b565b610a618284611c56565b6006546001600160a01b031633146118665760405162461bcd60e51b815260206004820181905260248201526000805160206129e0833981519152604482015260640161092b565b6001600160a01b0381166118e25760405162461bcd60e51b815260206004820152602660248201527f4f776e61626c653a206e6577206f776e657220697320746865207a65726f206160448201527f6464726573730000000000000000000000000000000000000000000000000000606482015260840161092b565b610d3e81611c04565b600081815260046020526040902080546001600160a01b0319166001600160a01b038416908117909155819061192082610f80565b6001600160a01b03167f8c5be1e5ebec7d5bd14f71427d1e84f3dd0314c0f7b2291e5b200ac8c7c3b92560405160405180910390a45050565b6000818152600260205260408120546001600160a01b03166119d25760405162461bcd60e51b815260206004820152602c60248201527f4552433732313a206f70657261746f7220717565727920666f72206e6f6e657860448201526b34b9ba32b73a103a37b5b2b760a11b606482015260840161092b565b60006119dd83610f80565b9050806001600160a01b0316846001600160a01b03161480611a185750836001600160a01b0316611a0d846108b6565b6001600160a01b0316145b80611a4857506001600160a01b0380821660009081526005602090815260408083209388168352929052205460ff165b949350505050565b826001600160a01b0316611a6382610f80565b6001600160a01b031614611adf5760405162461bcd60e51b815260206004820152602560248201527f4552433732313a207472616e736665722066726f6d20696e636f72726563742060448201527f6f776e6572000000000000000000000000000000000000000000000000000000606482015260840161092b565b6001600160a01b038216611b415760405162461bcd60e51b8152602060048201526024808201527f4552433732313a207472616e7366657220746f20746865207a65726f206164646044820152637265737360e01b606482015260840161092b565b611b4c6000826118eb565b6001600160a01b0383166000908152600360205260408120805460019290611b75908490612931565b90915550506001600160a01b0382166000908152600360205260408120805460019290611ba3908490612836565b909155505060008181526002602052604080822080546001600160a01b0319166001600160a01b0386811691821790925591518493918716917fddf252ad1be2c89b69c2b068fc378daa952ba7f163c4a11628f55a4df523b3ef91a4505050565b600680546001600160a01b038381166001600160a01b0319831681179093556040519116919082907f8be0079c531659141344cd1fd0a4f28419497f9722a3daafe3b4186f6b6457e090600090a35050565b60005b81811015610a6157611c6f600780546001019055565b611c8183611c7c60075490565b611f5d565b80611c8b8161281b565b915050611c59565b816001600160a01b0316836001600160a01b03161415611cf55760405162461bcd60e51b815260206004820152601960248201527f4552433732313a20617070726f766520746f2063616c6c657200000000000000604482015260640161092b565b6001600160a01b03838116600081815260056020908152604080832094871680845294825291829020805460ff191686151590811790915591519182527f17307eab39ab6107e8899845ad3d59bd9653f200f220920489ca2b5937696c31910160405180910390a3505050565b611d6d848484611a50565b611d7984848484611f77565b61144b5760405162461bcd60e51b815260206004820152603260248201527f4552433732313a207472616e7366657220746f206e6f6e20455243373231526560448201527131b2b4bb32b91034b6b83632b6b2b73a32b960711b606482015260840161092b565b606060088054610833906127b4565b606081611e135750506040805180820190915260018152600360fc1b602082015290565b8160005b8115611e3d5780611e278161281b565b9150611e369050600a8361295e565b9150611e17565b60008167ffffffffffffffff811115611e5857611e586124a8565b6040519080825280601f01601f191660200182016040528015611e82576020820181803683370190505b5090505b8415611a4857611e97600183612931565b9150611ea4600a86612972565b611eaf906030612836565b60f81b818381518110611ec457611ec46127ef565b60200101907effffffffffffffffffffffffffffffffffffffffffffffffffffffffffffff1916908160001a905350611efe600a8661295e565b9450611e86565b610d3e81604051602401611f199190612436565b60408051601f198184030181529190526020810180517bffffffffffffffffffffffffffffffffffffffffffffffffffffffff1663104c13eb60e21b1790526120c0565b610ac18282604051806020016040528060008152506120e1565b60006001600160a01b0384163b156120b557604051630a85bd0160e11b81526001600160a01b0385169063150b7a0290611fbb903390899088908890600401612986565b6020604051808303816000875af1925050508015611ff6575060408051601f3d908101601f19168201909252611ff3918101906129c2565b60015b61209b573d808015612024576040519150601f19603f3d011682016040523d82523d6000602084013e612029565b606091505b5080516120935760405162461bcd60e51b815260206004820152603260248201527f4552433732313a207472616e7366657220746f206e6f6e20455243373231526560448201527131b2b4bb32b91034b6b83632b6b2b73a32b960711b606482015260840161092b565b805181602001fd5b6001600160e01b031916630a85bd0160e11b149050611a48565b506001949350505050565b80516a636f6e736f6c652e6c6f67602083016000808483855afa5050505050565b6120eb838361215f565b6120f86000848484611f77565b610a615760405162461bcd60e51b815260206004820152603260248201527f4552433732313a207472616e7366657220746f206e6f6e20455243373231526560448201527131b2b4bb32b91034b6b83632b6b2b73a32b960711b606482015260840161092b565b6001600160a01b0382166121b55760405162461bcd60e51b815260206004820181905260248201527f4552433732313a206d696e7420746f20746865207a65726f2061646472657373604482015260640161092b565b6000818152600260205260409020546001600160a01b03161561221a5760405162461bcd60e51b815260206004820152601c60248201527f4552433732313a20746f6b656e20616c7265616479206d696e74656400000000604482015260640161092b565b6001600160a01b0382166000908152600360205260408120805460019290612243908490612836565b909155505060008181526002602052604080822080546001600160a01b0319166001600160a01b03861690811790915590518392907fddf252ad1be2c89b69c2b068fc378daa952ba7f163c4a11628f55a4df523b3ef908290a45050565b8280546122ad906127b4565b90600052602060002090601f0160209004810192826122cf5760008555612315565b82601f106122e857805160ff1916838001178555612315565b82800160010185558215612315579182015b828111156123155782518255916020019190600101906122fa565b50612321929150612396565b5090565b5080546000825590600052602060002090810190610d3e9190612396565b828054828255906000526020600020908101928215612315579160200282015b828111156123155781546001600160a01b0319166001600160a01b03843516178255602090920191600190910190612363565b5b808211156123215760008155600101612397565b6001600160e01b031981168114610d3e57600080fd5b6000602082840312156123d357600080fd5b8135611601816123ab565b60005b838110156123f95781810151838201526020016123e1565b8381111561144b5750506000910152565b600081518084526124228160208601602086016123de565b601f01601f19169290920160200192915050565b602081526000611601602083018461240a565b60006020828403121561245b57600080fd5b5035919050565b80356001600160a01b038116811461247957600080fd5b919050565b6000806040838503121561249157600080fd5b61249a83612462565b946020939093013593505050565b634e487b7160e01b600052604160045260246000fd5b600067ffffffffffffffff808411156124d9576124d96124a8565b604051601f8501601f19908116603f01168101908282118183101715612501576125016124a8565b8160405280935085815286868601111561251a57600080fd5b858560208301376000602087830101525050509392505050565b60006020828403121561254657600080fd5b813567ffffffffffffffff81111561255d57600080fd5b8201601f8101841361256e57600080fd5b611a48848235602084016124be565b8035801515811461247957600080fd5b60006020828403121561259f57600080fd5b6116018261257d565b6000806000606084860312156125bd57600080fd5b6125c684612462565b92506125d460208501612462565b9150604084013590509250925092565b6000602082840312156125f657600080fd5b61160182612462565b6020808252825182820181905260009190848201906040850190845b818110156126375783518352928401929184019160010161261b565b50909695505050505050565b6000806040838503121561265657600080fd5b61265f83612462565b915061266d6020840161257d565b90509250929050565b6000806000806080858703121561268c57600080fd5b61269585612462565b93506126a360208601612462565b925060408501359150606085013567ffffffffffffffff8111156126c657600080fd5b8501601f810187136126d757600080fd5b6126e6878235602084016124be565b91505092959194509250565b6000806040838503121561270557600080fd5b61270e83612462565b915061266d60208401612462565b6000806020838503121561272f57600080fd5b823567ffffffffffffffff8082111561274757600080fd5b818501915085601f83011261275b57600080fd5b81358181111561276a57600080fd5b8660208260051b850101111561277f57600080fd5b60209290920196919550909350505050565b600080604083850312156127a457600080fd5b8235915061266d60208401612462565b600181811c908216806127c857607f821691505b602082108114156127e957634e487b7160e01b600052602260045260246000fd5b50919050565b634e487b7160e01b600052603260045260246000fd5b634e487b7160e01b600052601160045260246000fd5b600060001982141561282f5761282f612805565b5060010190565b6000821982111561284957612849612805565b500190565b600081600019048311821515161561286857612868612805565b500290565b6000845160206128808285838a016123de565b8551918401916128938184848a016123de565b8554920191600090600181811c90808316806128b057607f831692505b8583108114156128ce57634e487b7160e01b85526022600452602485fd5b8080156128e257600181146128f357612920565b60ff19851688528388019550612920565b60008b81526020902060005b858110156129185781548a8201529084019088016128ff565b505083880195505b50939b9a5050505050505050505050565b60008282101561294357612943612805565b500390565b634e487b7160e01b600052601260045260246000fd5b60008261296d5761296d612948565b500490565b60008261298157612981612948565b500690565b60006001600160a01b038087168352808616602084015250836040830152608060608301526129b8608083018461240a565b9695505050505050565b6000602082840312156129d457600080fd5b8151611601816123ab56fe4f776e61626c653a2063616c6c6572206973206e6f7420746865206f776e6572a2646970667358221220e5d8d105d0f6779d81b582d8e3ba58117ea4794c8b77511d3eb106143649082164736f6c634300080b0033",
  "linkReferences": {},
  "deployedLinkReferences": {}
}