{
  "_format": "hh-sol-artifact-1",
  "contractName": "PRJCTX",
  "sourceName": "contracts/PRJCTX.sol",
  "abi": [
    {
      "inputs": [],
      "stateMutability": "nonpayable",
      "type": "constructor"
    },
    {
      "inputs": [],
      "name": "ApprovalCallerNotOwnerNorApproved",
      "type": "error"
    },
    {
      "inputs": [],
      "name": "ApprovalQueryForNonexistentToken",
      "type": "error"
    },
    {
      "inputs": [],
      "name": "ApprovalToCurrentOwner",
      "type": "error"
    },
    {
      "inputs": [],
      "name": "ApproveToCaller",
      "type": "error"
    },
    {
      "inputs": [],
      "name": "BalanceQueryForZeroAddress",
      "type": "error"
    },
    {
      "inputs": [],
      "name": "InvalidMintAmount",
      "type": "error"
    },
    {
      "inputs": [],
      "name": "MaxSupplyExceeded",
      "type": "error"
    },
    {
      "inputs": [],
      "name": "MerkleProofInvalid",
      "type": "error"
    },
    {
      "inputs": [],
      "name": "MintToZeroAddress",
      "type": "error"
    },
    {
      "inputs": [],
      "name": "MintZeroQuantity",
      "type": "error"
    },
    {
      "inputs": [],
      "name": "OwnerQueryForNonexistentToken",
      "type": "error"
    },
    {
      "inputs": [],
      "name": "TransferCallerNotOwnerNorApproved",
      "type": "error"
    },
    {
      "inputs": [],
      "name": "TransferFromIncorrectOwner",
      "type": "error"
    },
    {
      "inputs": [],
      "name": "TransferToNonERC721ReceiverImplementer",
      "type": "error"
    },
    {
      "inputs": [],
      "name": "TransferToZeroAddress",
      "type": "error"
    },
    {
      "inputs": [],
      "name": "WhitelistSaleNotOpen",
      "type": "error"
    },
    {
      "anonymous": false,
      "inputs": [
        {
          "indexed": true,
          "internalType": "address",
          "name": "owner",
          "type": "address"
        },
        {
          "indexed": true,
          "internalType": "address",
          "name": "approved",
          "type": "address"
        },
        {
          "indexed": true,
          "internalType": "uint256",
          "name": "tokenId",
          "type": "uint256"
        }
      ],
      "name": "Approval",
      "type": "event"
    },
    {
      "anonymous": false,
      "inputs": [
        {
          "indexed": true,
          "internalType": "address",
          "name": "owner",
          "type": "address"
        },
        {
          "indexed": true,
          "internalType": "address",
          "name": "operator",
          "type": "address"
        },
        {
          "indexed": false,
          "internalType": "bool",
          "name": "approved",
          "type": "bool"
        }
      ],
      "name": "ApprovalForAll",
      "type": "event"
    },
    {
      "anonymous": false,
      "inputs": [
        {
          "indexed": true,
          "internalType": "address",
          "name": "previousOwner",
          "type": "address"
        },
        {
          "indexed": true,
          "internalType": "address",
          "name": "newOwner",
          "type": "address"
        }
      ],
      "name": "OwnershipTransferred",
      "type": "event"
    },
    {
      "anonymous": false,
      "inputs": [
        {
          "indexed": true,
          "internalType": "address",
          "name": "from",
          "type": "address"
        },
        {
          "indexed": true,
          "internalType": "address",
          "name": "to",
          "type": "address"
        },
        {
          "indexed": true,
          "internalType": "uint256",
          "name": "tokenId",
          "type": "uint256"
        }
      ],
      "name": "Transfer",
      "type": "event"
    },
    {
      "inputs": [
        {
          "internalType": "address",
          "name": "to",
          "type": "address"
        },
        {
          "internalType": "uint256",
          "name": "tokenId",
          "type": "uint256"
        }
      ],
      "name": "approve",
      "outputs": [],
      "stateMutability": "nonpayable",
      "type": "function"
    },
    {
      "inputs": [
        {
          "internalType": "address",
          "name": "owner",
          "type": "address"
        }
      ],
      "name": "balanceOf",
      "outputs": [
        {
          "internalType": "uint256",
          "name": "",
          "type": "uint256"
        }
      ],
      "stateMutability": "view",
      "type": "function"
    },
    {
      "inputs": [],
      "name": "cost",
      "outputs": [
        {
          "internalType": "uint256",
          "name": "",
          "type": "uint256"
        }
      ],
      "stateMutability": "view",
      "type": "function"
    },
    {
      "inputs": [
        {
          "internalType": "uint256",
          "name": "tokenId",
          "type": "uint256"
        }
      ],
      "name": "getApproved",
      "outputs": [
        {
          "internalType": "address",
          "name": "",
          "type": "address"
        }
      ],
      "stateMutability": "view",
      "type": "function"
    },
    {
      "inputs": [],
      "name": "getOnlyWhiteListedState",
      "outputs": [
        {
          "internalType": "bool",
          "name": "",
          "type": "bool"
        }
      ],
      "stateMutability": "view",
      "type": "function"
    },
    {
      "inputs": [],
      "name": "hiddenMetadataUri",
      "outputs": [
        {
          "internalType": "string",
          "name": "",
          "type": "string"
        }
      ],
      "stateMutability": "view",
      "type": "function"
    },
    {
      "inputs": [
        {
          "internalType": "address",
          "name": "owner",
          "type": "address"
        },
        {
          "internalType": "address",
          "name": "operator",
          "type": "address"
        }
      ],
      "name": "isApprovedForAll",
      "outputs": [
        {
          "internalType": "bool",
          "name": "",
          "type": "bool"
        }
      ],
      "stateMutability": "view",
      "type": "function"
    },
    {
      "inputs": [],
      "name": "maxMintAmountPerTx",
      "outputs": [
        {
          "internalType": "uint256",
          "name": "",
          "type": "uint256"
        }
      ],
      "stateMutability": "view",
      "type": "function"
    },
    {
      "inputs": [],
      "name": "maxSupply",
      "outputs": [
        {
          "internalType": "uint256",
          "name": "",
          "type": "uint256"
        }
      ],
      "stateMutability": "view",
      "type": "function"
    },
    {
      "inputs": [],
      "name": "merkleRoot",
      "outputs": [
        {
          "internalType": "bytes32",
          "name": "",
          "type": "bytes32"
        }
      ],
      "stateMutability": "view",
      "type": "function"
    },
    {
      "inputs": [
        {
          "internalType": "uint256",
          "name": "_mintAmount",
          "type": "uint256"
        }
      ],
      "name": "mint",
      "outputs": [],
      "stateMutability": "payable",
      "type": "function"
    },
    {
      "inputs": [
        {
          "internalType": "uint256",
          "name": "_mintAmount",
          "type": "uint256"
        },
        {
          "internalType": "address",
          "name": "_receiver",
          "type": "address"
        }
      ],
      "name": "mintForAddress",
      "outputs": [],
      "stateMutability": "nonpayable",
      "type": "function"
    },
    {
      "inputs": [],
      "name": "name",
      "outputs": [
        {
          "internalType": "string",
          "name": "",
          "type": "string"
        }
      ],
      "stateMutability": "view",
      "type": "function"
    },
    {
      "inputs": [],
      "name": "onlyWhitelisted",
      "outputs": [
        {
          "internalType": "bool",
          "name": "",
          "type": "bool"
        }
      ],
      "stateMutability": "view",
      "type": "function"
    },
    {
      "inputs": [],
      "name": "owner",
      "outputs": [
        {
          "internalType": "address",
          "name": "",
          "type": "address"
        }
      ],
      "stateMutability": "view",
      "type": "function"
    },
    {
      "inputs": [
        {
          "internalType": "uint256",
          "name": "tokenId",
          "type": "uint256"
        }
      ],
      "name": "ownerOf",
      "outputs": [
        {
          "internalType": "address",
          "name": "",
          "type": "address"
        }
      ],
      "stateMutability": "view",
      "type": "function"
    },
    {
      "inputs": [],
      "name": "paused",
      "outputs": [
        {
          "internalType": "bool",
          "name": "",
          "type": "bool"
        }
      ],
      "stateMutability": "view",
      "type": "function"
    },
    {
      "inputs": [],
      "name": "renounceOwnership",
      "outputs": [],
      "stateMutability": "nonpayable",
      "type": "function"
    },
    {
      "inputs": [],
      "name": "revealed",
      "outputs": [
        {
          "internalType": "bool",
          "name": "",
          "type": "bool"
        }
      ],
      "stateMutability": "view",
      "type": "function"
    },
    {
      "inputs": [
        {
          "internalType": "address",
          "name": "from",
          "type": "address"
        },
        {
          "internalType": "address",
          "name": "to",
          "type": "address"
        },
        {
          "internalType": "uint256",
          "name": "tokenId",
          "type": "uint256"
        }
      ],
      "name": "safeTransferFrom",
      "outputs": [],
      "stateMutability": "nonpayable",
      "type": "function"
    },
    {
      "inputs": [
        {
          "internalType": "address",
          "name": "from",
          "type": "address"
        },
        {
          "internalType": "address",
          "name": "to",
          "type": "address"
        },
        {
          "internalType": "uint256",
          "name": "tokenId",
          "type": "uint256"
        },
        {
          "internalType": "bytes",
          "name": "_data",
          "type": "bytes"
        }
      ],
      "name": "safeTransferFrom",
      "outputs": [],
      "stateMutability": "nonpayable",
      "type": "function"
    },
    {
      "inputs": [
        {
          "internalType": "address",
          "name": "operator",
          "type": "address"
        },
        {
          "internalType": "bool",
          "name": "approved",
          "type": "bool"
        }
      ],
      "name": "setApprovalForAll",
      "outputs": [],
      "stateMutability": "nonpayable",
      "type": "function"
    },
    {
      "inputs": [
        {
          "internalType": "uint256",
          "name": "_cost",
          "type": "uint256"
        }
      ],
      "name": "setCost",
      "outputs": [],
      "stateMutability": "nonpayable",
      "type": "function"
    },
    {
      "inputs": [
        {
          "internalType": "string",
          "name": "_hiddenMetadataUri",
          "type": "string"
        }
      ],
      "name": "setHiddenMetadataUri",
      "outputs": [],
      "stateMutability": "nonpayable",
      "type": "function"
    },
    {
      "inputs": [
        {
          "internalType": "uint256",
          "name": "_maxMintAmountPerTx",
          "type": "uint256"
        }
      ],
      "name": "setMaxMintAmountPerTx",
      "outputs": [],
      "stateMutability": "nonpayable",
      "type": "function"
    },
    {
      "inputs": [
        {
          "internalType": "bytes32",
          "name": "_merkleRoot",
          "type": "bytes32"
        }
      ],
      "name": "setMerkleRoot",
      "outputs": [],
      "stateMutability": "nonpayable",
      "type": "function"
    },
    {
      "inputs": [
        {
          "internalType": "bool",
          "name": "_state",
          "type": "bool"
        }
      ],
      "name": "setOnlyWhitelisted",
      "outputs": [],
      "stateMutability": "nonpayable",
      "type": "function"
    },
    {
      "inputs": [
        {
          "internalType": "bool",
          "name": "_state",
          "type": "bool"
        }
      ],
      "name": "setPaused",
      "outputs": [],
      "stateMutability": "nonpayable",
      "type": "function"
    },
    {
      "inputs": [
        {
          "internalType": "bool",
          "name": "_state",
          "type": "bool"
        }
      ],
      "name": "setRevealed",
      "outputs": [],
      "stateMutability": "nonpayable",
      "type": "function"
    },
    {
      "inputs": [
        {
          "internalType": "string",
          "name": "_uriPrefix",
          "type": "string"
        }
      ],
      "name": "setUriPrefix",
      "outputs": [],
      "stateMutability": "nonpayable",
      "type": "function"
    },
    {
      "inputs": [
        {
          "internalType": "string",
          "name": "_uriSuffix",
          "type": "string"
        }
      ],
      "name": "setUriSuffix",
      "outputs": [],
      "stateMutability": "nonpayable",
      "type": "function"
    },
    {
      "inputs": [
        {
          "internalType": "bytes4",
          "name": "interfaceId",
          "type": "bytes4"
        }
      ],
      "name": "supportsInterface",
      "outputs": [
        {
          "internalType": "bool",
          "name": "",
          "type": "bool"
        }
      ],
      "stateMutability": "view",
      "type": "function"
    },
    {
      "inputs": [],
      "name": "symbol",
      "outputs": [
        {
          "internalType": "string",
          "name": "",
          "type": "string"
        }
      ],
      "stateMutability": "view",
      "type": "function"
    },
    {
      "inputs": [
        {
          "internalType": "uint256",
          "name": "_tokenId",
          "type": "uint256"
        }
      ],
      "name": "tokenURI",
      "outputs": [
        {
          "internalType": "string",
          "name": "",
          "type": "string"
        }
      ],
      "stateMutability": "view",
      "type": "function"
    },
    {
      "inputs": [],
      "name": "totalSupply",
      "outputs": [
        {
          "internalType": "uint256",
          "name": "",
          "type": "uint256"
        }
      ],
      "stateMutability": "view",
      "type": "function"
    },
    {
      "inputs": [
        {
          "internalType": "address",
          "name": "from",
          "type": "address"
        },
        {
          "internalType": "address",
          "name": "to",
          "type": "address"
        },
        {
          "internalType": "uint256",
          "name": "tokenId",
          "type": "uint256"
        }
      ],
      "name": "transferFrom",
      "outputs": [],
      "stateMutability": "nonpayable",
      "type": "function"
    },
    {
      "inputs": [
        {
          "internalType": "address",
          "name": "newOwner",
          "type": "address"
        }
      ],
      "name": "transferOwnership",
      "outputs": [],
      "stateMutability": "nonpayable",
      "type": "function"
    },
    {
      "inputs": [],
      "name": "uriPrefix",
      "outputs": [
        {
          "internalType": "string",
          "name": "",
          "type": "string"
        }
      ],
      "stateMutability": "view",
      "type": "function"
    },
    {
      "inputs": [],
      "name": "uriSuffix",
      "outputs": [
        {
          "internalType": "string",
          "name": "",
          "type": "string"
        }
      ],
      "stateMutability": "view",
      "type": "function"
    },
    {
      "inputs": [
        {
          "internalType": "address",
          "name": "_owner",
          "type": "address"
        }
      ],
      "name": "walletOfOwner",
      "outputs": [
        {
          "internalType": "uint256[]",
          "name": "",
          "type": "uint256[]"
        }
      ],
      "stateMutability": "view",
      "type": "function"
    },
    {
      "inputs": [
        {
          "internalType": "bytes32[]",
          "name": "_merkleProof",
          "type": "bytes32[]"
        },
        {
          "internalType": "uint256",
          "name": "_mintAmount",
          "type": "uint256"
        }
      ],
      "name": "whiteListMint",
      "outputs": [],
      "stateMutability": "payable",
      "type": "function"
    },
    {
      "inputs": [
        {
          "internalType": "address",
          "name": "",
          "type": "address"
        }
      ],
      "name": "whitelistClaimed",
      "outputs": [
        {
          "internalType": "bool",
          "name": "",
          "type": "bool"
        }
      ],
      "stateMutability": "view",
      "type": "function"
    },
    {
      "inputs": [],
      "name": "withdraw",
      "outputs": [],
      "stateMutability": "payable",
      "type": "function"
    }
  ],
  "bytecode": "0x60a06040819052600060808190526200001b9160099162000203565b5060408051808201909152600580825264173539b7b760d91b60209092019182526200004a91600a9162000203565b5067016345785d8a0000600c556107e6600d556014600e55600f805462ffffff191660011790553480156200007e57600080fd5b5060408051808201825260078152660a0a49486a85ab60cb1b6020808301918252835180850190945260068452650a0a49486a8b60d31b908401528151919291620000cc9160029162000203565b508051620000e290600390602084019062000203565b50506000805550620000f43362000139565b60408051808201909152601a81527f697066733a2f2f5f5f4349445f5f2f68696464656e2e6a736f6e000000000000602082015262000133906200018b565b620002e6565b600880546001600160a01b038381166001600160a01b0319831681179093556040519116919082907f8be0079c531659141344cd1fd0a4f28419497f9722a3daafe3b4186f6b6457e090600090a35050565b6008546001600160a01b03163314620001ea5760405162461bcd60e51b815260206004820181905260248201527f4f776e61626c653a2063616c6c6572206973206e6f7420746865206f776e6572604482015260640160405180910390fd5b8051620001ff90600b90602084019062000203565b5050565b8280546200021190620002a9565b90600052602060002090601f01602090048101928262000235576000855562000280565b82601f106200025057805160ff191683800117855562000280565b8280016001018555821562000280579182015b828111156200028057825182559160200191906001019062000263565b506200028e92915062000292565b5090565b5b808211156200028e576000815560010162000293565b600181811c90821680620002be57607f821691505b60208210811415620002e057634e487b7160e01b600052602260045260246000fd5b50919050565b61280a80620002f66000396000f3fe6080604052600436106102dc5760003560e01c80636352211e11610184578063a45ba8e7116100d6578063d5abeb011161008a578063e985e9c511610064578063e985e9c51461079a578063efbd73f4146107e3578063f2fde38b1461080357600080fd5b8063d5abeb0114610734578063db4bec441461074a578063e0a808531461077a57600080fd5b8063b88d4fde116100bb578063b88d4fde146106e1578063c30bf31814610701578063c87b56dd1461071457600080fd5b8063a45ba8e7146106ac578063b071401b146106c157600080fd5b80638da5cb5b116101385780639c70b512116101125780639c70b51214610659578063a0712d6814610679578063a22cb4651461068c57600080fd5b80638da5cb5b1461061057806394354fd01461062e57806395d89b411461064457600080fd5b8063715018a611610169578063715018a6146105bb5780637cb64759146105d05780637ec4a659146105f057600080fd5b80636352211e1461057b57806370a082311461059b57600080fd5b80633c9527641161023d5780634fdd43cb116101f15780635503a0e8116101cb5780635503a0e8146105375780635c975abb1461054c57806362b99ad41461056657600080fd5b80634fdd43cb146104da578063515b8f82146104fa578063518302271461051857600080fd5b806342842e0e1161022257806342842e0e1461046d578063438b63001461048d57806344a0d68a146104ba57600080fd5b80633c952764146104455780633ccfd60b1461046557600080fd5b806316ba10e01161029457806318160ddd1161027957806318160ddd146103f657806323b872dd1461040f5780632eb4a7ab1461042f57600080fd5b806316ba10e0146103b657806316c38b3c146103d657600080fd5b8063081812fc116102c5578063081812fc14610338578063095ea7b31461037057806313faede61461039257600080fd5b806301ffc9a7146102e157806306fdde0314610316575b600080fd5b3480156102ed57600080fd5b506103016102fc366004612190565b610823565b60405190151581526020015b60405180910390f35b34801561032257600080fd5b5061032b610875565b60405161030d9190612205565b34801561034457600080fd5b50610358610353366004612218565b610907565b6040516001600160a01b03909116815260200161030d565b34801561037c57600080fd5b5061039061038b36600461224d565b61094b565b005b34801561039e57600080fd5b506103a8600c5481565b60405190815260200161030d565b3480156103c257600080fd5b506103906103d1366004612303565b6109d9565b3480156103e257600080fd5b506103906103f136600461235c565b610a3d565b34801561040257600080fd5b50600154600054036103a8565b34801561041b57600080fd5b5061039061042a366004612377565b610a98565b34801561043b57600080fd5b506103a860105481565b34801561045157600080fd5b5061039061046036600461235c565b610aa3565b610390610b07565b34801561047957600080fd5b50610390610488366004612377565b610bc3565b34801561049957600080fd5b506104ad6104a83660046123b3565b610bde565b60405161030d91906123ce565b3480156104c657600080fd5b506103906104d5366004612218565b610cbf565b3480156104e657600080fd5b506103906104f5366004612303565b610d0c565b34801561050657600080fd5b50600f5462010000900460ff16610301565b34801561052457600080fd5b50600f5461030190610100900460ff1681565b34801561054357600080fd5b5061032b610d67565b34801561055857600080fd5b50600f546103019060ff1681565b34801561057257600080fd5b5061032b610df5565b34801561058757600080fd5b50610358610596366004612218565b610e02565b3480156105a757600080fd5b506103a86105b63660046123b3565b610e14565b3480156105c757600080fd5b50610390610e63565b3480156105dc57600080fd5b506103906105eb366004612218565b610eb7565b3480156105fc57600080fd5b5061039061060b366004612303565b610f04565b34801561061c57600080fd5b506008546001600160a01b0316610358565b34801561063a57600080fd5b506103a8600e5481565b34801561065057600080fd5b5061032b610f5f565b34801561066557600080fd5b50600f546103019062010000900460ff1681565b610390610687366004612218565b610f6e565b34801561069857600080fd5b506103906106a7366004612412565b6110fb565b3480156106b857600080fd5b5061032b611191565b3480156106cd57600080fd5b506103906106dc366004612218565b61119e565b3480156106ed57600080fd5b506103906106fc366004612445565b6111eb565b61039061070f3660046124c1565b61123c565b34801561072057600080fd5b5061032b61072f366004612218565b6114c9565b34801561074057600080fd5b506103a8600d5481565b34801561075657600080fd5b506103016107653660046123b3565b60116020526000908152604090205460ff1681565b34801561078657600080fd5b5061039061079536600461235c565b611646565b3480156107a657600080fd5b506103016107b536600461253c565b6001600160a01b03918216600090815260076020908152604080832093909416825291909152205460ff1690565b3480156107ef57600080fd5b506103906107fe366004612566565b6116a8565b34801561080f57600080fd5b5061039061081e3660046123b3565b611762565b60006001600160e01b031982166380ac58cd60e01b148061085457506001600160e01b03198216635b5e139f60e01b145b8061086f57506301ffc9a760e01b6001600160e01b03198316145b92915050565b60606002805461088490612589565b80601f01602080910402602001604051908101604052809291908181526020018280546108b090612589565b80156108fd5780601f106108d2576101008083540402835291602001916108fd565b820191906000526020600020905b8154815290600101906020018083116108e057829003601f168201915b5050505050905090565b60006109128261182f565b61092f576040516333d1c03960e21b815260040160405180910390fd5b506000908152600660205260409020546001600160a01b031690565b600061095682610e02565b9050806001600160a01b0316836001600160a01b0316141561098b5760405163250fdee360e21b815260040160405180910390fd5b336001600160a01b038216148015906109ab57506109a981336107b5565b155b156109c9576040516367d9dca160e11b815260040160405180910390fd5b6109d483838361185a565b505050565b6008546001600160a01b03163314610a265760405162461bcd60e51b815260206004820181905260248201526000805160206127b583398151915260448201526064015b60405180910390fd5b8051610a3990600a9060208401906120e1565b5050565b6008546001600160a01b03163314610a855760405162461bcd60e51b815260206004820181905260248201526000805160206127b58339815191526044820152606401610a1d565b600f805460ff1916911515919091179055565b6109d48383836118c3565b6008546001600160a01b03163314610aeb5760405162461bcd60e51b815260206004820181905260248201526000805160206127b58339815191526044820152606401610a1d565b600f8054911515620100000262ff000019909216919091179055565b6008546001600160a01b03163314610b4f5760405162461bcd60e51b815260206004820181905260248201526000805160206127b58339815191526044820152606401610a1d565b6000610b636008546001600160a01b031690565b6001600160a01b03164760405160006040518083038185875af1925050503d8060008114610bad576040519150601f19603f3d011682016040523d82523d6000602084013e610bb2565b606091505b5050905080610bc057600080fd5b50565b6109d4838383604051806020016040528060008152506111eb565b60606000610beb83610e14565b905060008167ffffffffffffffff811115610c0857610c08612277565b604051908082528060200260200182016040528015610c31578160200160208202803683370190505b509050600160005b8381108015610c4a5750600d548211155b15610cb5576000610c5a83610e02565b9050866001600160a01b0316816001600160a01b03161415610ca25782848381518110610c8957610c896125c4565b602090810291909101015281610c9e816125f0565b9250505b82610cac816125f0565b93505050610c39565b5090949350505050565b6008546001600160a01b03163314610d075760405162461bcd60e51b815260206004820181905260248201526000805160206127b58339815191526044820152606401610a1d565b600c55565b6008546001600160a01b03163314610d545760405162461bcd60e51b815260206004820181905260248201526000805160206127b58339815191526044820152606401610a1d565b8051610a3990600b9060208401906120e1565b600a8054610d7490612589565b80601f0160208091040260200160405190810160405280929190818152602001828054610da090612589565b8015610ded5780601f10610dc257610100808354040283529160200191610ded565b820191906000526020600020905b815481529060010190602001808311610dd057829003601f168201915b505050505081565b60098054610d7490612589565b6000610e0d82611ad6565b5192915050565b60006001600160a01b038216610e3d576040516323d3ad8160e21b815260040160405180910390fd5b506001600160a01b031660009081526005602052604090205467ffffffffffffffff1690565b6008546001600160a01b03163314610eab5760405162461bcd60e51b815260206004820181905260248201526000805160206127b58339815191526044820152606401610a1d565b610eb56000611bf2565b565b6008546001600160a01b03163314610eff5760405162461bcd60e51b815260206004820181905260248201526000805160206127b58339815191526044820152606401610a1d565b601055565b6008546001600160a01b03163314610f4c5760405162461bcd60e51b815260206004820181905260248201526000805160206127b58339815191526044820152606401610a1d565b8051610a399060099060208401906120e1565b60606003805461088490612589565b8080158015610f7e5750600e5481115b15610f9c5760405163199f5a0360e31b815260040160405180910390fd5b600d5481610fad6001546000540390565b610fb7919061260b565b1115610fd657604051638a164f6360e01b815260040160405180910390fd5b600f5460ff16156110295760405162461bcd60e51b815260206004820152601660248201527f54686520636f6e747261637420697320706175736564000000000000000000006044820152606401610a1d565b600f5462010000900460ff16156110825760405162461bcd60e51b815260206004820152601e60248201527f4d696e74696e67206f70656e20746f2077686974656c697374206f6e6c7900006044820152606401610a1d565b6008546001600160a01b031633146110f15781600c546110a29190612623565b3410156110f15760405162461bcd60e51b815260206004820152601260248201527f496e73756666696369656e742066756e647300000000000000000000000000006044820152606401610a1d565b610a393383611c51565b6001600160a01b0382163314156111255760405163b06307db60e01b815260040160405180910390fd5b3360008181526007602090815260408083206001600160a01b03871680855290835292819020805460ff191686151590811790915590519081529192917f17307eab39ab6107e8899845ad3d59bd9653f200f220920489ca2b5937696c31910160405180910390a35050565b600b8054610d7490612589565b6008546001600160a01b031633146111e65760405162461bcd60e51b815260206004820181905260248201526000805160206127b58339815191526044820152606401610a1d565b600e55565b6111f68484846118c3565b6001600160a01b0383163b15158015611218575061121684848484611c6b565b155b15611236576040516368d2bf6b60e11b815260040160405180910390fd5b50505050565b808015801561124c5750600e5481115b1561126a5760405163199f5a0360e31b815260040160405180910390fd5b600d548161127b6001546000540390565b611285919061260b565b11156112a457604051638a164f6360e01b815260040160405180910390fd5b600f5460ff16156112f75760405162461bcd60e51b815260206004820152601660248201527f54686520636f6e747261637420697320706175736564000000000000000000006044820152606401610a1d565b600f5462010000900460ff1661132057604051631b3b71e560e11b815260040160405180910390fd5b3360009081526011602052604090205460ff16156113805760405162461bcd60e51b815260206004820152601e60248201527f416464726573732068617320616c726561647920636c61696d656420574c00006044820152606401610a1d565b6040516bffffffffffffffffffffffff193360601b1660208201526000906034016040516020818303038152906040528051906020012090506113fa858580806020026020016040519081016040528093929190818152602001838360200280828437600092019190915250506010549150849050611d54565b6114175760405163c8ac23c360e01b815260040160405180910390fd5b336000908152601160205260409020805460ff191660011790556114436008546001600160a01b031690565b6001600160a01b0316336001600160a01b0316146114b85782600c546114699190612623565b3410156114b85760405162461bcd60e51b815260206004820152601260248201527f496e73756666696369656e742066756e647300000000000000000000000000006044820152606401610a1d565b6114c23384611c51565b5050505050565b60606114d48261182f565b6115465760405162461bcd60e51b815260206004820152603060248201527f455243373231414d657461646174613a2055524920717565727920666f72206e60448201527f6f6e6578697374656e7420746f6b656e000000000000000000000000000000006064820152608401610a1d565b600f54610100900460ff166115e757600b805461156290612589565b80601f016020809104026020016040519081016040528092919081815260200182805461158e90612589565b80156115db5780601f106115b0576101008083540402835291602001916115db565b820191906000526020600020905b8154815290600101906020018083116115be57829003601f168201915b50505050509050919050565b60006115f1611d6a565b90506000815111611611576040518060200160405280600081525061163f565b8061161b84611d79565b600a60405160200161162f93929190612642565b6040516020818303038152906040525b9392505050565b6008546001600160a01b0316331461168e5760405162461bcd60e51b815260206004820181905260248201526000805160206127b58339815191526044820152606401610a1d565b600f80549115156101000261ff0019909216919091179055565b81801580156116b85750600e5481115b156116d65760405163199f5a0360e31b815260040160405180910390fd5b600d54816116e76001546000540390565b6116f1919061260b565b111561171057604051638a164f6360e01b815260040160405180910390fd5b6008546001600160a01b031633146117585760405162461bcd60e51b815260206004820181905260248201526000805160206127b58339815191526044820152606401610a1d565b6109d48284611c51565b6008546001600160a01b031633146117aa5760405162461bcd60e51b815260206004820181905260248201526000805160206127b58339815191526044820152606401610a1d565b6001600160a01b0381166118265760405162461bcd60e51b815260206004820152602660248201527f4f776e61626c653a206e6577206f776e657220697320746865207a65726f206160448201527f64647265737300000000000000000000000000000000000000000000000000006064820152608401610a1d565b610bc081611bf2565b600080548210801561086f575050600090815260046020526040902054600160e01b900460ff161590565b600082815260066020526040808220805473ffffffffffffffffffffffffffffffffffffffff19166001600160a01b0387811691821790925591518593918516917f8c5be1e5ebec7d5bd14f71427d1e84f3dd0314c0f7b2291e5b200ac8c7c3b92591a4505050565b60006118ce82611ad6565b80519091506000906001600160a01b0316336001600160a01b031614806118fc575081516118fc90336107b5565b8061191757503361190c84610907565b6001600160a01b0316145b90508061193757604051632ce44b5f60e11b815260040160405180910390fd5b846001600160a01b031682600001516001600160a01b03161461196c5760405162a1148160e81b815260040160405180910390fd5b6001600160a01b03841661199357604051633a954ecd60e21b815260040160405180910390fd5b6119a3600084846000015161185a565b6001600160a01b038581166000908152600560209081526040808320805467ffffffffffffffff1980821667ffffffffffffffff92831660001901831617909255898616808652838620805493841693831660019081018416949094179055898652600490945282852080546001600160e01b031916909417600160a01b429092169190910217909255908601808352912054909116611a8f57600054811015611a8f578251600082815260046020908152604090912080549186015167ffffffffffffffff16600160a01b026001600160e01b03199092166001600160a01b03909316929092171790555b5082846001600160a01b0316866001600160a01b03167fddf252ad1be2c89b69c2b068fc378daa952ba7f163c4a11628f55a4df523b3ef60405160405180910390a46114c2565b604080516060810182526000808252602082018190529181019190915281600054811015611bd957600081815260046020908152604091829020825160608101845290546001600160a01b0381168252600160a01b810467ffffffffffffffff1692820192909252600160e01b90910460ff16151591810182905290611bd75780516001600160a01b031615611b6d579392505050565b5060001901600081815260046020908152604091829020825160608101845290546001600160a01b038116808352600160a01b820467ffffffffffffffff1693830193909352600160e01b900460ff1615159281019290925215611bd2579392505050565b611b6d565b505b604051636f96cda160e11b815260040160405180910390fd5b600880546001600160a01b0383811673ffffffffffffffffffffffffffffffffffffffff19831681179093556040519116919082907f8be0079c531659141344cd1fd0a4f28419497f9722a3daafe3b4186f6b6457e090600090a35050565b610a39828260405180602001604052806000815250611e8f565b604051630a85bd0160e11b81526000906001600160a01b0385169063150b7a0290611ca0903390899088908890600401612706565b6020604051808303816000875af1925050508015611cdb575060408051601f3d908101601f19168201909252611cd891810190612742565b60015b611d36573d808015611d09576040519150601f19603f3d011682016040523d82523d6000602084013e611d0e565b606091505b508051611d2e576040516368d2bf6b60e11b815260040160405180910390fd5b805181602001fd5b6001600160e01b031916630a85bd0160e11b1490505b949350505050565b600082611d618584611e9c565b14949350505050565b60606009805461088490612589565b606081611d9d5750506040805180820190915260018152600360fc1b602082015290565b8160005b8115611dc75780611db1816125f0565b9150611dc09050600a83612775565b9150611da1565b60008167ffffffffffffffff811115611de257611de2612277565b6040519080825280601f01601f191660200182016040528015611e0c576020820181803683370190505b5090505b8415611d4c57611e21600183612789565b9150611e2e600a866127a0565b611e3990603061260b565b60f81b818381518110611e4e57611e4e6125c4565b60200101907effffffffffffffffffffffffffffffffffffffffffffffffffffffffffffff1916908160001a905350611e88600a86612775565b9450611e10565b6109d48383836001611f10565b600081815b8451811015611f08576000858281518110611ebe57611ebe6125c4565b60200260200101519050808311611ee45760008381526020829052604090209250611ef5565b600081815260208490526040902092505b5080611f00816125f0565b915050611ea1565b509392505050565b6000546001600160a01b038516611f3957604051622e076360e81b815260040160405180910390fd5b83611f575760405163b562e8dd60e01b815260040160405180910390fd5b6001600160a01b038516600081815260056020908152604080832080546fffffffffffffffffffffffffffffffff19811667ffffffffffffffff8083168c0181169182176801000000000000000067ffffffffffffffff1990941690921783900481168c01811690920217909155858452600490925290912080546001600160e01b031916909217600160a01b42909216919091021790558080850183801561200957506001600160a01b0387163b15155b15612092575b60405182906001600160a01b038916906000907fddf252ad1be2c89b69c2b068fc378daa952ba7f163c4a11628f55a4df523b3ef908290a461205a6000888480600101955088611c6b565b612077576040516368d2bf6b60e11b815260040160405180910390fd5b8082141561200f57826000541461208d57600080fd5b6120d8565b5b6040516001830192906001600160a01b038916906000907fddf252ad1be2c89b69c2b068fc378daa952ba7f163c4a11628f55a4df523b3ef908290a480821415612093575b506000556114c2565b8280546120ed90612589565b90600052602060002090601f01602090048101928261210f5760008555612155565b82601f1061212857805160ff1916838001178555612155565b82800160010185558215612155579182015b8281111561215557825182559160200191906001019061213a565b50612161929150612165565b5090565b5b808211156121615760008155600101612166565b6001600160e01b031981168114610bc057600080fd5b6000602082840312156121a257600080fd5b813561163f8161217a565b60005b838110156121c85781810151838201526020016121b0565b838111156112365750506000910152565b600081518084526121f18160208601602086016121ad565b601f01601f19169290920160200192915050565b60208152600061163f60208301846121d9565b60006020828403121561222a57600080fd5b5035919050565b80356001600160a01b038116811461224857600080fd5b919050565b6000806040838503121561226057600080fd5b61226983612231565b946020939093013593505050565b634e487b7160e01b600052604160045260246000fd5b600067ffffffffffffffff808411156122a8576122a8612277565b604051601f8501601f19908116603f011681019082821181831017156122d0576122d0612277565b816040528093508581528686860111156122e957600080fd5b858560208301376000602087830101525050509392505050565b60006020828403121561231557600080fd5b813567ffffffffffffffff81111561232c57600080fd5b8201601f8101841361233d57600080fd5b611d4c8482356020840161228d565b8035801515811461224857600080fd5b60006020828403121561236e57600080fd5b61163f8261234c565b60008060006060848603121561238c57600080fd5b61239584612231565b92506123a360208501612231565b9150604084013590509250925092565b6000602082840312156123c557600080fd5b61163f82612231565b6020808252825182820181905260009190848201906040850190845b81811015612406578351835292840192918401916001016123ea565b50909695505050505050565b6000806040838503121561242557600080fd5b61242e83612231565b915061243c6020840161234c565b90509250929050565b6000806000806080858703121561245b57600080fd5b61246485612231565b935061247260208601612231565b925060408501359150606085013567ffffffffffffffff81111561249557600080fd5b8501601f810187136124a657600080fd5b6124b58782356020840161228d565b91505092959194509250565b6000806000604084860312156124d657600080fd5b833567ffffffffffffffff808211156124ee57600080fd5b818601915086601f83011261250257600080fd5b81358181111561251157600080fd5b8760208260051b850101111561252657600080fd5b6020928301989097509590910135949350505050565b6000806040838503121561254f57600080fd5b61255883612231565b915061243c60208401612231565b6000806040838503121561257957600080fd5b8235915061243c60208401612231565b600181811c9082168061259d57607f821691505b602082108114156125be57634e487b7160e01b600052602260045260246000fd5b50919050565b634e487b7160e01b600052603260045260246000fd5b634e487b7160e01b600052601160045260246000fd5b6000600019821415612604576126046125da565b5060010190565b6000821982111561261e5761261e6125da565b500190565b600081600019048311821515161561263d5761263d6125da565b500290565b6000845160206126558285838a016121ad565b8551918401916126688184848a016121ad565b8554920191600090600181811c908083168061268557607f831692505b8583108114156126a357634e487b7160e01b85526022600452602485fd5b8080156126b757600181146126c8576126f5565b60ff198516885283880195506126f5565b60008b81526020902060005b858110156126ed5781548a8201529084019088016126d4565b505083880195505b50939b9a5050505050505050505050565b60006001600160a01b0380871683528086166020840152508360408301526080606083015261273860808301846121d9565b9695505050505050565b60006020828403121561275457600080fd5b815161163f8161217a565b634e487b7160e01b600052601260045260246000fd5b6000826127845761278461275f565b500490565b60008282101561279b5761279b6125da565b500390565b6000826127af576127af61275f565b50069056fe4f776e61626c653a2063616c6c6572206973206e6f7420746865206f776e6572a2646970667358221220c79d9c65a2ccbc89a4fe53cbeefeaa5325ddcb461dc018adb995c4dfc709197864736f6c634300080b0033",
  "linkReferences": {},
  "deployedLinkReferences": {}
}