{
  "_format": "hh-sol-artifact-1",
  "contractName": "PRJCTX",
  "sourceName": "contracts/PRJCTX.sol",
  "abi": [
    {
      "inputs": [],
      "stateMutability": "nonpayable",
      "type": "constructor"
    },
    {
      "inputs": [],
      "name": "ApprovalCallerNotOwnerNorApproved",
      "type": "error"
    },
    {
      "inputs": [],
      "name": "ApprovalQueryForNonexistentToken",
      "type": "error"
    },
    {
      "inputs": [],
      "name": "ApprovalToCurrentOwner",
      "type": "error"
    },
    {
      "inputs": [],
      "name": "ApproveToCaller",
      "type": "error"
    },
    {
      "inputs": [],
      "name": "BalanceQueryForZeroAddress",
      "type": "error"
    },
    {
      "inputs": [],
      "name": "InvalidMintAmount",
      "type": "error"
    },
    {
      "inputs": [],
      "name": "MaxSupplyExceeded",
      "type": "error"
    },
    {
      "inputs": [],
      "name": "MerkleProofInvalid",
      "type": "error"
    },
    {
      "inputs": [],
      "name": "MintPaused",
      "type": "error"
    },
    {
      "inputs": [],
      "name": "MintToZeroAddress",
      "type": "error"
    },
    {
      "inputs": [],
      "name": "MintZeroQuantity",
      "type": "error"
    },
    {
      "inputs": [],
      "name": "NormalMintNotOpen",
      "type": "error"
    },
    {
      "inputs": [],
      "name": "OwnerQueryForNonexistentToken",
      "type": "error"
    },
    {
      "inputs": [],
      "name": "TransferCallerNotOwnerNorApproved",
      "type": "error"
    },
    {
      "inputs": [],
      "name": "TransferFromIncorrectOwner",
      "type": "error"
    },
    {
      "inputs": [],
      "name": "TransferToNonERC721ReceiverImplementer",
      "type": "error"
    },
    {
      "inputs": [],
      "name": "TransferToZeroAddress",
      "type": "error"
    },
    {
      "inputs": [],
      "name": "WhitelistMintNotOpen",
      "type": "error"
    },
    {
      "anonymous": false,
      "inputs": [
        {
          "indexed": true,
          "internalType": "address",
          "name": "owner",
          "type": "address"
        },
        {
          "indexed": true,
          "internalType": "address",
          "name": "approved",
          "type": "address"
        },
        {
          "indexed": true,
          "internalType": "uint256",
          "name": "tokenId",
          "type": "uint256"
        }
      ],
      "name": "Approval",
      "type": "event"
    },
    {
      "anonymous": false,
      "inputs": [
        {
          "indexed": true,
          "internalType": "address",
          "name": "owner",
          "type": "address"
        },
        {
          "indexed": true,
          "internalType": "address",
          "name": "operator",
          "type": "address"
        },
        {
          "indexed": false,
          "internalType": "bool",
          "name": "approved",
          "type": "bool"
        }
      ],
      "name": "ApprovalForAll",
      "type": "event"
    },
    {
      "anonymous": false,
      "inputs": [
        {
          "indexed": true,
          "internalType": "address",
          "name": "previousOwner",
          "type": "address"
        },
        {
          "indexed": true,
          "internalType": "address",
          "name": "newOwner",
          "type": "address"
        }
      ],
      "name": "OwnershipTransferred",
      "type": "event"
    },
    {
      "anonymous": false,
      "inputs": [
        {
          "indexed": true,
          "internalType": "address",
          "name": "from",
          "type": "address"
        },
        {
          "indexed": true,
          "internalType": "address",
          "name": "to",
          "type": "address"
        },
        {
          "indexed": true,
          "internalType": "uint256",
          "name": "tokenId",
          "type": "uint256"
        }
      ],
      "name": "Transfer",
      "type": "event"
    },
    {
      "inputs": [
        {
          "internalType": "address",
          "name": "to",
          "type": "address"
        },
        {
          "internalType": "uint256",
          "name": "tokenId",
          "type": "uint256"
        }
      ],
      "name": "approve",
      "outputs": [],
      "stateMutability": "nonpayable",
      "type": "function"
    },
    {
      "inputs": [
        {
          "internalType": "address",
          "name": "owner",
          "type": "address"
        }
      ],
      "name": "balanceOf",
      "outputs": [
        {
          "internalType": "uint256",
          "name": "",
          "type": "uint256"
        }
      ],
      "stateMutability": "view",
      "type": "function"
    },
    {
      "inputs": [],
      "name": "cost",
      "outputs": [
        {
          "internalType": "uint256",
          "name": "",
          "type": "uint256"
        }
      ],
      "stateMutability": "view",
      "type": "function"
    },
    {
      "inputs": [
        {
          "internalType": "uint256",
          "name": "tokenId",
          "type": "uint256"
        }
      ],
      "name": "getApproved",
      "outputs": [
        {
          "internalType": "address",
          "name": "",
          "type": "address"
        }
      ],
      "stateMutability": "view",
      "type": "function"
    },
    {
      "inputs": [],
      "name": "getOnlyWhiteListedState",
      "outputs": [
        {
          "internalType": "bool",
          "name": "",
          "type": "bool"
        }
      ],
      "stateMutability": "view",
      "type": "function"
    },
    {
      "inputs": [],
      "name": "hiddenMetadataUri",
      "outputs": [
        {
          "internalType": "string",
          "name": "",
          "type": "string"
        }
      ],
      "stateMutability": "view",
      "type": "function"
    },
    {
      "inputs": [
        {
          "internalType": "address",
          "name": "owner",
          "type": "address"
        },
        {
          "internalType": "address",
          "name": "operator",
          "type": "address"
        }
      ],
      "name": "isApprovedForAll",
      "outputs": [
        {
          "internalType": "bool",
          "name": "",
          "type": "bool"
        }
      ],
      "stateMutability": "view",
      "type": "function"
    },
    {
      "inputs": [],
      "name": "maxMintAmountPerTx",
      "outputs": [
        {
          "internalType": "uint256",
          "name": "",
          "type": "uint256"
        }
      ],
      "stateMutability": "view",
      "type": "function"
    },
    {
      "inputs": [],
      "name": "maxSupply",
      "outputs": [
        {
          "internalType": "uint256",
          "name": "",
          "type": "uint256"
        }
      ],
      "stateMutability": "view",
      "type": "function"
    },
    {
      "inputs": [],
      "name": "merkleRoot",
      "outputs": [
        {
          "internalType": "bytes32",
          "name": "",
          "type": "bytes32"
        }
      ],
      "stateMutability": "view",
      "type": "function"
    },
    {
      "inputs": [
        {
          "internalType": "uint256",
          "name": "_mintAmount",
          "type": "uint256"
        }
      ],
      "name": "mint",
      "outputs": [],
      "stateMutability": "payable",
      "type": "function"
    },
    {
      "inputs": [
        {
          "internalType": "uint256",
          "name": "_mintAmount",
          "type": "uint256"
        },
        {
          "internalType": "address",
          "name": "_receiver",
          "type": "address"
        }
      ],
      "name": "mintForAddress",
      "outputs": [],
      "stateMutability": "nonpayable",
      "type": "function"
    },
    {
      "inputs": [],
      "name": "name",
      "outputs": [
        {
          "internalType": "string",
          "name": "",
          "type": "string"
        }
      ],
      "stateMutability": "view",
      "type": "function"
    },
    {
      "inputs": [],
      "name": "onlyWhitelisted",
      "outputs": [
        {
          "internalType": "bool",
          "name": "",
          "type": "bool"
        }
      ],
      "stateMutability": "view",
      "type": "function"
    },
    {
      "inputs": [],
      "name": "owner",
      "outputs": [
        {
          "internalType": "address",
          "name": "",
          "type": "address"
        }
      ],
      "stateMutability": "view",
      "type": "function"
    },
    {
      "inputs": [
        {
          "internalType": "uint256",
          "name": "tokenId",
          "type": "uint256"
        }
      ],
      "name": "ownerOf",
      "outputs": [
        {
          "internalType": "address",
          "name": "",
          "type": "address"
        }
      ],
      "stateMutability": "view",
      "type": "function"
    },
    {
      "inputs": [],
      "name": "paused",
      "outputs": [
        {
          "internalType": "bool",
          "name": "",
          "type": "bool"
        }
      ],
      "stateMutability": "view",
      "type": "function"
    },
    {
      "inputs": [],
      "name": "renounceOwnership",
      "outputs": [],
      "stateMutability": "nonpayable",
      "type": "function"
    },
    {
      "inputs": [],
      "name": "revealed",
      "outputs": [
        {
          "internalType": "bool",
          "name": "",
          "type": "bool"
        }
      ],
      "stateMutability": "view",
      "type": "function"
    },
    {
      "inputs": [
        {
          "internalType": "address",
          "name": "from",
          "type": "address"
        },
        {
          "internalType": "address",
          "name": "to",
          "type": "address"
        },
        {
          "internalType": "uint256",
          "name": "tokenId",
          "type": "uint256"
        }
      ],
      "name": "safeTransferFrom",
      "outputs": [],
      "stateMutability": "nonpayable",
      "type": "function"
    },
    {
      "inputs": [
        {
          "internalType": "address",
          "name": "from",
          "type": "address"
        },
        {
          "internalType": "address",
          "name": "to",
          "type": "address"
        },
        {
          "internalType": "uint256",
          "name": "tokenId",
          "type": "uint256"
        },
        {
          "internalType": "bytes",
          "name": "_data",
          "type": "bytes"
        }
      ],
      "name": "safeTransferFrom",
      "outputs": [],
      "stateMutability": "nonpayable",
      "type": "function"
    },
    {
      "inputs": [
        {
          "internalType": "address",
          "name": "operator",
          "type": "address"
        },
        {
          "internalType": "bool",
          "name": "approved",
          "type": "bool"
        }
      ],
      "name": "setApprovalForAll",
      "outputs": [],
      "stateMutability": "nonpayable",
      "type": "function"
    },
    {
      "inputs": [
        {
          "internalType": "uint256",
          "name": "_cost",
          "type": "uint256"
        }
      ],
      "name": "setCost",
      "outputs": [],
      "stateMutability": "nonpayable",
      "type": "function"
    },
    {
      "inputs": [
        {
          "internalType": "string",
          "name": "_hiddenMetadataUri",
          "type": "string"
        }
      ],
      "name": "setHiddenMetadataUri",
      "outputs": [],
      "stateMutability": "nonpayable",
      "type": "function"
    },
    {
      "inputs": [
        {
          "internalType": "uint256",
          "name": "_maxMintAmountPerTx",
          "type": "uint256"
        }
      ],
      "name": "setMaxMintAmountPerTx",
      "outputs": [],
      "stateMutability": "nonpayable",
      "type": "function"
    },
    {
      "inputs": [
        {
          "internalType": "bytes32",
          "name": "_merkleRoot",
          "type": "bytes32"
        }
      ],
      "name": "setMerkleRoot",
      "outputs": [],
      "stateMutability": "nonpayable",
      "type": "function"
    },
    {
      "inputs": [
        {
          "internalType": "bool",
          "name": "_state",
          "type": "bool"
        }
      ],
      "name": "setOnlyWhitelisted",
      "outputs": [],
      "stateMutability": "nonpayable",
      "type": "function"
    },
    {
      "inputs": [
        {
          "internalType": "bool",
          "name": "_state",
          "type": "bool"
        }
      ],
      "name": "setPaused",
      "outputs": [],
      "stateMutability": "nonpayable",
      "type": "function"
    },
    {
      "inputs": [
        {
          "internalType": "bool",
          "name": "_state",
          "type": "bool"
        }
      ],
      "name": "setRevealed",
      "outputs": [],
      "stateMutability": "nonpayable",
      "type": "function"
    },
    {
      "inputs": [
        {
          "internalType": "string",
          "name": "_uriPrefix",
          "type": "string"
        }
      ],
      "name": "setUriPrefix",
      "outputs": [],
      "stateMutability": "nonpayable",
      "type": "function"
    },
    {
      "inputs": [
        {
          "internalType": "string",
          "name": "_uriSuffix",
          "type": "string"
        }
      ],
      "name": "setUriSuffix",
      "outputs": [],
      "stateMutability": "nonpayable",
      "type": "function"
    },
    {
      "inputs": [
        {
          "internalType": "bytes4",
          "name": "interfaceId",
          "type": "bytes4"
        }
      ],
      "name": "supportsInterface",
      "outputs": [
        {
          "internalType": "bool",
          "name": "",
          "type": "bool"
        }
      ],
      "stateMutability": "view",
      "type": "function"
    },
    {
      "inputs": [],
      "name": "symbol",
      "outputs": [
        {
          "internalType": "string",
          "name": "",
          "type": "string"
        }
      ],
      "stateMutability": "view",
      "type": "function"
    },
    {
      "inputs": [
        {
          "internalType": "uint256",
          "name": "_tokenId",
          "type": "uint256"
        }
      ],
      "name": "tokenURI",
      "outputs": [
        {
          "internalType": "string",
          "name": "",
          "type": "string"
        }
      ],
      "stateMutability": "view",
      "type": "function"
    },
    {
      "inputs": [],
      "name": "totalSupply",
      "outputs": [
        {
          "internalType": "uint256",
          "name": "",
          "type": "uint256"
        }
      ],
      "stateMutability": "view",
      "type": "function"
    },
    {
      "inputs": [
        {
          "internalType": "address",
          "name": "from",
          "type": "address"
        },
        {
          "internalType": "address",
          "name": "to",
          "type": "address"
        },
        {
          "internalType": "uint256",
          "name": "tokenId",
          "type": "uint256"
        }
      ],
      "name": "transferFrom",
      "outputs": [],
      "stateMutability": "nonpayable",
      "type": "function"
    },
    {
      "inputs": [
        {
          "internalType": "address",
          "name": "newOwner",
          "type": "address"
        }
      ],
      "name": "transferOwnership",
      "outputs": [],
      "stateMutability": "nonpayable",
      "type": "function"
    },
    {
      "inputs": [],
      "name": "uriPrefix",
      "outputs": [
        {
          "internalType": "string",
          "name": "",
          "type": "string"
        }
      ],
      "stateMutability": "view",
      "type": "function"
    },
    {
      "inputs": [],
      "name": "uriSuffix",
      "outputs": [
        {
          "internalType": "string",
          "name": "",
          "type": "string"
        }
      ],
      "stateMutability": "view",
      "type": "function"
    },
    {
      "inputs": [
        {
          "internalType": "address",
          "name": "_owner",
          "type": "address"
        }
      ],
      "name": "walletOfOwner",
      "outputs": [
        {
          "internalType": "uint256[]",
          "name": "",
          "type": "uint256[]"
        }
      ],
      "stateMutability": "view",
      "type": "function"
    },
    {
      "inputs": [
        {
          "internalType": "bytes32[]",
          "name": "_merkleProof",
          "type": "bytes32[]"
        },
        {
          "internalType": "uint256",
          "name": "_mintAmount",
          "type": "uint256"
        }
      ],
      "name": "whiteListMint",
      "outputs": [],
      "stateMutability": "payable",
      "type": "function"
    },
    {
      "inputs": [
        {
          "internalType": "address",
          "name": "",
          "type": "address"
        }
      ],
      "name": "whitelistClaimed",
      "outputs": [
        {
          "internalType": "bool",
          "name": "",
          "type": "bool"
        }
      ],
      "stateMutability": "view",
      "type": "function"
    },
    {
      "inputs": [],
      "name": "withdraw",
      "outputs": [],
      "stateMutability": "payable",
      "type": "function"
    }
  ],
  "bytecode": "0x60a06040819052600060808190526200001b9160099162000203565b5060408051808201909152600580825264173539b7b760d91b60209092019182526200004a91600a9162000203565b5067011c37937e080000600c556107e6600d556014600e55600f805462ffffff191660011790553480156200007e57600080fd5b5060408051808201825260078152660a0a49486a85ab60cb1b6020808301918252835180850190945260068452650a0a49486a8b60d31b908401528151919291620000cc9160029162000203565b508051620000e290600390602084019062000203565b50506000805550620000f43362000139565b60408051808201909152601a81527f697066733a2f2f5f5f4349445f5f2f68696464656e2e6a736f6e000000000000602082015262000133906200018b565b620002e6565b600880546001600160a01b038381166001600160a01b0319831681179093556040519116919082907f8be0079c531659141344cd1fd0a4f28419497f9722a3daafe3b4186f6b6457e090600090a35050565b6008546001600160a01b03163314620001ea5760405162461bcd60e51b815260206004820181905260248201527f4f776e61626c653a2063616c6c6572206973206e6f7420746865206f776e6572604482015260640160405180910390fd5b8051620001ff90600b90602084019062000203565b5050565b8280546200021190620002a9565b90600052602060002090601f01602090048101928262000235576000855562000280565b82601f106200025057805160ff191683800117855562000280565b8280016001018555821562000280579182015b828111156200028057825182559160200191906001019062000263565b506200028e92915062000292565b5090565b5b808211156200028e576000815560010162000293565b600181811c90821680620002be57607f821691505b60208210811415620002e057634e487b7160e01b600052602260045260246000fd5b50919050565b6127c080620002f66000396000f3fe6080604052600436106102dc5760003560e01c80636352211e11610184578063a45ba8e7116100d6578063d5abeb011161008a578063e985e9c511610064578063e985e9c51461079a578063efbd73f4146107e3578063f2fde38b1461080357600080fd5b8063d5abeb0114610734578063db4bec441461074a578063e0a808531461077a57600080fd5b8063b88d4fde116100bb578063b88d4fde146106e1578063c30bf31814610701578063c87b56dd1461071457600080fd5b8063a45ba8e7146106ac578063b071401b146106c157600080fd5b80638da5cb5b116101385780639c70b512116101125780639c70b51214610659578063a0712d6814610679578063a22cb4651461068c57600080fd5b80638da5cb5b1461061057806394354fd01461062e57806395d89b411461064457600080fd5b8063715018a611610169578063715018a6146105bb5780637cb64759146105d05780637ec4a659146105f057600080fd5b80636352211e1461057b57806370a082311461059b57600080fd5b80633c9527641161023d5780634fdd43cb116101f15780635503a0e8116101cb5780635503a0e8146105375780635c975abb1461054c57806362b99ad41461056657600080fd5b80634fdd43cb146104da578063515b8f82146104fa578063518302271461051857600080fd5b806342842e0e1161022257806342842e0e1461046d578063438b63001461048d57806344a0d68a146104ba57600080fd5b80633c952764146104455780633ccfd60b1461046557600080fd5b806316ba10e01161029457806318160ddd1161027957806318160ddd146103f657806323b872dd1461040f5780632eb4a7ab1461042f57600080fd5b806316ba10e0146103b657806316c38b3c146103d657600080fd5b8063081812fc116102c5578063081812fc14610338578063095ea7b31461037057806313faede61461039257600080fd5b806301ffc9a7146102e157806306fdde0314610316575b600080fd5b3480156102ed57600080fd5b506103016102fc366004612146565b610823565b60405190151581526020015b60405180910390f35b34801561032257600080fd5b5061032b610875565b60405161030d91906121bb565b34801561034457600080fd5b506103586103533660046121ce565b610907565b6040516001600160a01b03909116815260200161030d565b34801561037c57600080fd5b5061039061038b366004612203565b61094b565b005b34801561039e57600080fd5b506103a8600c5481565b60405190815260200161030d565b3480156103c257600080fd5b506103906103d13660046122b9565b6109d9565b3480156103e257600080fd5b506103906103f1366004612312565b610a3d565b34801561040257600080fd5b50600154600054036103a8565b34801561041b57600080fd5b5061039061042a36600461232d565b610a98565b34801561043b57600080fd5b506103a860105481565b34801561045157600080fd5b50610390610460366004612312565b610aa3565b610390610b07565b34801561047957600080fd5b5061039061048836600461232d565b610c06565b34801561049957600080fd5b506104ad6104a8366004612369565b610c21565b60405161030d9190612384565b3480156104c657600080fd5b506103906104d53660046121ce565b610d02565b3480156104e657600080fd5b506103906104f53660046122b9565b610d4f565b34801561050657600080fd5b50600f5462010000900460ff16610301565b34801561052457600080fd5b50600f5461030190610100900460ff1681565b34801561054357600080fd5b5061032b610daa565b34801561055857600080fd5b50600f546103019060ff1681565b34801561057257600080fd5b5061032b610e38565b34801561058757600080fd5b506103586105963660046121ce565b610e45565b3480156105a757600080fd5b506103a86105b6366004612369565b610e57565b3480156105c757600080fd5b50610390610ea6565b3480156105dc57600080fd5b506103906105eb3660046121ce565b610efa565b3480156105fc57600080fd5b5061039061060b3660046122b9565b610f47565b34801561061c57600080fd5b506008546001600160a01b0316610358565b34801561063a57600080fd5b506103a8600e5481565b34801561065057600080fd5b5061032b610fa2565b34801561066557600080fd5b50600f546103019062010000900460ff1681565b6103906106873660046121ce565b610fb1565b34801561069857600080fd5b506103906106a73660046123c8565b6110e0565b3480156106b857600080fd5b5061032b611176565b3480156106cd57600080fd5b506103906106dc3660046121ce565b611183565b3480156106ed57600080fd5b506103906106fc3660046123fb565b6111d0565b61039061070f366004612477565b611221565b34801561072057600080fd5b5061032b61072f3660046121ce565b61147f565b34801561074057600080fd5b506103a8600d5481565b34801561075657600080fd5b50610301610765366004612369565b60116020526000908152604090205460ff1681565b34801561078657600080fd5b50610390610795366004612312565b6115fc565b3480156107a657600080fd5b506103016107b53660046124f2565b6001600160a01b03918216600090815260076020908152604080832093909416825291909152205460ff1690565b3480156107ef57600080fd5b506103906107fe36600461251c565b61165e565b34801561080f57600080fd5b5061039061081e366004612369565b611718565b60006001600160e01b031982166380ac58cd60e01b148061085457506001600160e01b03198216635b5e139f60e01b145b8061086f57506301ffc9a760e01b6001600160e01b03198316145b92915050565b6060600280546108849061253f565b80601f01602080910402602001604051908101604052809291908181526020018280546108b09061253f565b80156108fd5780601f106108d2576101008083540402835291602001916108fd565b820191906000526020600020905b8154815290600101906020018083116108e057829003601f168201915b5050505050905090565b6000610912826117e5565b61092f576040516333d1c03960e21b815260040160405180910390fd5b506000908152600660205260409020546001600160a01b031690565b600061095682610e45565b9050806001600160a01b0316836001600160a01b0316141561098b5760405163250fdee360e21b815260040160405180910390fd5b336001600160a01b038216148015906109ab57506109a981336107b5565b155b156109c9576040516367d9dca160e11b815260040160405180910390fd5b6109d4838383611810565b505050565b6008546001600160a01b03163314610a265760405162461bcd60e51b8152602060048201819052602482015260008051602061276b83398151915260448201526064015b60405180910390fd5b8051610a3990600a906020840190612097565b5050565b6008546001600160a01b03163314610a855760405162461bcd60e51b8152602060048201819052602482015260008051602061276b8339815191526044820152606401610a1d565b600f805460ff1916911515919091179055565b6109d4838383611879565b6008546001600160a01b03163314610aeb5760405162461bcd60e51b8152602060048201819052602482015260008051602061276b8339815191526044820152606401610a1d565b600f8054911515620100000262ff000019909216919091179055565b6008546001600160a01b03163314610b4f5760405162461bcd60e51b8152602060048201819052602482015260008051602061276b8339815191526044820152606401610a1d565b6000610b636008546001600160a01b031690565b6001600160a01b03164760405160006040518083038185875af1925050503d8060008114610bad576040519150601f19603f3d011682016040523d82523d6000602084013e610bb2565b606091505b5050905080610c035760405162461bcd60e51b815260206004820152601260248201527f4661696c656420746f20776974686472617700000000000000000000000000006044820152606401610a1d565b50565b6109d4838383604051806020016040528060008152506111d0565b60606000610c2e83610e57565b905060008167ffffffffffffffff811115610c4b57610c4b61222d565b604051908082528060200260200182016040528015610c74578160200160208202803683370190505b509050600160005b8381108015610c8d5750600d548211155b15610cf8576000610c9d83610e45565b9050866001600160a01b0316816001600160a01b03161415610ce55782848381518110610ccc57610ccc61257a565b602090810291909101015281610ce1816125a6565b9250505b82610cef816125a6565b93505050610c7c565b5090949350505050565b6008546001600160a01b03163314610d4a5760405162461bcd60e51b8152602060048201819052602482015260008051602061276b8339815191526044820152606401610a1d565b600c55565b6008546001600160a01b03163314610d975760405162461bcd60e51b8152602060048201819052602482015260008051602061276b8339815191526044820152606401610a1d565b8051610a3990600b906020840190612097565b600a8054610db79061253f565b80601f0160208091040260200160405190810160405280929190818152602001828054610de39061253f565b8015610e305780601f10610e0557610100808354040283529160200191610e30565b820191906000526020600020905b815481529060010190602001808311610e1357829003601f168201915b505050505081565b60098054610db79061253f565b6000610e5082611a8c565b5192915050565b60006001600160a01b038216610e80576040516323d3ad8160e21b815260040160405180910390fd5b506001600160a01b031660009081526005602052604090205467ffffffffffffffff1690565b6008546001600160a01b03163314610eee5760405162461bcd60e51b8152602060048201819052602482015260008051602061276b8339815191526044820152606401610a1d565b610ef86000611ba8565b565b6008546001600160a01b03163314610f425760405162461bcd60e51b8152602060048201819052602482015260008051602061276b8339815191526044820152606401610a1d565b601055565b6008546001600160a01b03163314610f8f5760405162461bcd60e51b8152602060048201819052602482015260008051602061276b8339815191526044820152606401610a1d565b8051610a39906009906020840190612097565b6060600380546108849061253f565b8080158015610fc15750600e5481115b15610fdf5760405163199f5a0360e31b815260040160405180910390fd5b600d5481610ff06001546000540390565b610ffa91906125c1565b111561101957604051638a164f6360e01b815260040160405180910390fd5b600f5460ff161561103d57604051636be9245d60e11b815260040160405180910390fd5b600f5462010000900460ff16156110675760405163edd72e4960e01b815260040160405180910390fd5b6008546001600160a01b031633146110d65781600c5461108791906125d9565b3410156110d65760405162461bcd60e51b815260206004820152601260248201527f496e73756666696369656e742066756e647300000000000000000000000000006044820152606401610a1d565b610a393383611c07565b6001600160a01b03821633141561110a5760405163b06307db60e01b815260040160405180910390fd5b3360008181526007602090815260408083206001600160a01b03871680855290835292819020805460ff191686151590811790915590519081529192917f17307eab39ab6107e8899845ad3d59bd9653f200f220920489ca2b5937696c31910160405180910390a35050565b600b8054610db79061253f565b6008546001600160a01b031633146111cb5760405162461bcd60e51b8152602060048201819052602482015260008051602061276b8339815191526044820152606401610a1d565b600e55565b6111db848484611879565b6001600160a01b0383163b151580156111fd57506111fb84848484611c21565b155b1561121b576040516368d2bf6b60e11b815260040160405180910390fd5b50505050565b80801580156112315750600e5481115b1561124f5760405163199f5a0360e31b815260040160405180910390fd5b600d54816112606001546000540390565b61126a91906125c1565b111561128957604051638a164f6360e01b815260040160405180910390fd5b600f5460ff16156112ad57604051636be9245d60e11b815260040160405180910390fd5b600f5462010000900460ff166112d6576040516385b2e79b60e01b815260040160405180910390fd5b3360009081526011602052604090205460ff16156113365760405162461bcd60e51b815260206004820152601e60248201527f416464726573732068617320616c726561647920636c61696d656420574c00006044820152606401610a1d565b6040516bffffffffffffffffffffffff193360601b1660208201526000906034016040516020818303038152906040528051906020012090506113b0858580806020026020016040519081016040528093929190818152602001838360200280828437600092019190915250506010549150849050611d0a565b6113cd5760405163c8ac23c360e01b815260040160405180910390fd5b336000908152601160205260409020805460ff191660011790556113f96008546001600160a01b031690565b6001600160a01b0316336001600160a01b03161461146e5782600c5461141f91906125d9565b34101561146e5760405162461bcd60e51b815260206004820152601260248201527f496e73756666696369656e742066756e647300000000000000000000000000006044820152606401610a1d565b6114783384611c07565b5050505050565b606061148a826117e5565b6114fc5760405162461bcd60e51b815260206004820152603060248201527f455243373231414d657461646174613a2055524920717565727920666f72206e60448201527f6f6e6578697374656e7420746f6b656e000000000000000000000000000000006064820152608401610a1d565b600f54610100900460ff1661159d57600b80546115189061253f565b80601f01602080910402602001604051908101604052809291908181526020018280546115449061253f565b80156115915780601f1061156657610100808354040283529160200191611591565b820191906000526020600020905b81548152906001019060200180831161157457829003601f168201915b50505050509050919050565b60006115a7611d20565b905060008151116115c757604051806020016040528060008152506115f5565b806115d184611d2f565b600a6040516020016115e5939291906125f8565b6040516020818303038152906040525b9392505050565b6008546001600160a01b031633146116445760405162461bcd60e51b8152602060048201819052602482015260008051602061276b8339815191526044820152606401610a1d565b600f80549115156101000261ff0019909216919091179055565b818015801561166e5750600e5481115b1561168c5760405163199f5a0360e31b815260040160405180910390fd5b600d548161169d6001546000540390565b6116a791906125c1565b11156116c657604051638a164f6360e01b815260040160405180910390fd5b6008546001600160a01b0316331461170e5760405162461bcd60e51b8152602060048201819052602482015260008051602061276b8339815191526044820152606401610a1d565b6109d48284611c07565b6008546001600160a01b031633146117605760405162461bcd60e51b8152602060048201819052602482015260008051602061276b8339815191526044820152606401610a1d565b6001600160a01b0381166117dc5760405162461bcd60e51b815260206004820152602660248201527f4f776e61626c653a206e6577206f776e657220697320746865207a65726f206160448201527f64647265737300000000000000000000000000000000000000000000000000006064820152608401610a1d565b610c0381611ba8565b600080548210801561086f575050600090815260046020526040902054600160e01b900460ff161590565b600082815260066020526040808220805473ffffffffffffffffffffffffffffffffffffffff19166001600160a01b0387811691821790925591518593918516917f8c5be1e5ebec7d5bd14f71427d1e84f3dd0314c0f7b2291e5b200ac8c7c3b92591a4505050565b600061188482611a8c565b80519091506000906001600160a01b0316336001600160a01b031614806118b2575081516118b290336107b5565b806118cd5750336118c284610907565b6001600160a01b0316145b9050806118ed57604051632ce44b5f60e11b815260040160405180910390fd5b846001600160a01b031682600001516001600160a01b0316146119225760405162a1148160e81b815260040160405180910390fd5b6001600160a01b03841661194957604051633a954ecd60e21b815260040160405180910390fd5b6119596000848460000151611810565b6001600160a01b038581166000908152600560209081526040808320805467ffffffffffffffff1980821667ffffffffffffffff92831660001901831617909255898616808652838620805493841693831660019081018416949094179055898652600490945282852080546001600160e01b031916909417600160a01b429092169190910217909255908601808352912054909116611a4557600054811015611a45578251600082815260046020908152604090912080549186015167ffffffffffffffff16600160a01b026001600160e01b03199092166001600160a01b03909316929092171790555b5082846001600160a01b0316866001600160a01b03167fddf252ad1be2c89b69c2b068fc378daa952ba7f163c4a11628f55a4df523b3ef60405160405180910390a4611478565b604080516060810182526000808252602082018190529181019190915281600054811015611b8f57600081815260046020908152604091829020825160608101845290546001600160a01b0381168252600160a01b810467ffffffffffffffff1692820192909252600160e01b90910460ff16151591810182905290611b8d5780516001600160a01b031615611b23579392505050565b5060001901600081815260046020908152604091829020825160608101845290546001600160a01b038116808352600160a01b820467ffffffffffffffff1693830193909352600160e01b900460ff1615159281019290925215611b88579392505050565b611b23565b505b604051636f96cda160e11b815260040160405180910390fd5b600880546001600160a01b0383811673ffffffffffffffffffffffffffffffffffffffff19831681179093556040519116919082907f8be0079c531659141344cd1fd0a4f28419497f9722a3daafe3b4186f6b6457e090600090a35050565b610a39828260405180602001604052806000815250611e45565b604051630a85bd0160e11b81526000906001600160a01b0385169063150b7a0290611c569033908990889088906004016126bc565b6020604051808303816000875af1925050508015611c91575060408051601f3d908101601f19168201909252611c8e918101906126f8565b60015b611cec573d808015611cbf576040519150601f19603f3d011682016040523d82523d6000602084013e611cc4565b606091505b508051611ce4576040516368d2bf6b60e11b815260040160405180910390fd5b805181602001fd5b6001600160e01b031916630a85bd0160e11b1490505b949350505050565b600082611d178584611e52565b14949350505050565b6060600980546108849061253f565b606081611d535750506040805180820190915260018152600360fc1b602082015290565b8160005b8115611d7d5780611d67816125a6565b9150611d769050600a8361272b565b9150611d57565b60008167ffffffffffffffff811115611d9857611d9861222d565b6040519080825280601f01601f191660200182016040528015611dc2576020820181803683370190505b5090505b8415611d0257611dd760018361273f565b9150611de4600a86612756565b611def9060306125c1565b60f81b818381518110611e0457611e0461257a565b60200101907effffffffffffffffffffffffffffffffffffffffffffffffffffffffffffff1916908160001a905350611e3e600a8661272b565b9450611dc6565b6109d48383836001611ec6565b600081815b8451811015611ebe576000858281518110611e7457611e7461257a565b60200260200101519050808311611e9a5760008381526020829052604090209250611eab565b600081815260208490526040902092505b5080611eb6816125a6565b915050611e57565b509392505050565b6000546001600160a01b038516611eef57604051622e076360e81b815260040160405180910390fd5b83611f0d5760405163b562e8dd60e01b815260040160405180910390fd5b6001600160a01b038516600081815260056020908152604080832080546fffffffffffffffffffffffffffffffff19811667ffffffffffffffff8083168c0181169182176801000000000000000067ffffffffffffffff1990941690921783900481168c01811690920217909155858452600490925290912080546001600160e01b031916909217600160a01b429092169190910217905580808501838015611fbf57506001600160a01b0387163b15155b15612048575b60405182906001600160a01b038916906000907fddf252ad1be2c89b69c2b068fc378daa952ba7f163c4a11628f55a4df523b3ef908290a46120106000888480600101955088611c21565b61202d576040516368d2bf6b60e11b815260040160405180910390fd5b80821415611fc557826000541461204357600080fd5b61208e565b5b6040516001830192906001600160a01b038916906000907fddf252ad1be2c89b69c2b068fc378daa952ba7f163c4a11628f55a4df523b3ef908290a480821415612049575b50600055611478565b8280546120a39061253f565b90600052602060002090601f0160209004810192826120c5576000855561210b565b82601f106120de57805160ff191683800117855561210b565b8280016001018555821561210b579182015b8281111561210b5782518255916020019190600101906120f0565b5061211792915061211b565b5090565b5b80821115612117576000815560010161211c565b6001600160e01b031981168114610c0357600080fd5b60006020828403121561215857600080fd5b81356115f581612130565b60005b8381101561217e578181015183820152602001612166565b8381111561121b5750506000910152565b600081518084526121a7816020860160208601612163565b601f01601f19169290920160200192915050565b6020815260006115f5602083018461218f565b6000602082840312156121e057600080fd5b5035919050565b80356001600160a01b03811681146121fe57600080fd5b919050565b6000806040838503121561221657600080fd5b61221f836121e7565b946020939093013593505050565b634e487b7160e01b600052604160045260246000fd5b600067ffffffffffffffff8084111561225e5761225e61222d565b604051601f8501601f19908116603f011681019082821181831017156122865761228661222d565b8160405280935085815286868601111561229f57600080fd5b858560208301376000602087830101525050509392505050565b6000602082840312156122cb57600080fd5b813567ffffffffffffffff8111156122e257600080fd5b8201601f810184136122f357600080fd5b611d0284823560208401612243565b803580151581146121fe57600080fd5b60006020828403121561232457600080fd5b6115f582612302565b60008060006060848603121561234257600080fd5b61234b846121e7565b9250612359602085016121e7565b9150604084013590509250925092565b60006020828403121561237b57600080fd5b6115f5826121e7565b6020808252825182820181905260009190848201906040850190845b818110156123bc578351835292840192918401916001016123a0565b50909695505050505050565b600080604083850312156123db57600080fd5b6123e4836121e7565b91506123f260208401612302565b90509250929050565b6000806000806080858703121561241157600080fd5b61241a856121e7565b9350612428602086016121e7565b925060408501359150606085013567ffffffffffffffff81111561244b57600080fd5b8501601f8101871361245c57600080fd5b61246b87823560208401612243565b91505092959194509250565b60008060006040848603121561248c57600080fd5b833567ffffffffffffffff808211156124a457600080fd5b818601915086601f8301126124b857600080fd5b8135818111156124c757600080fd5b8760208260051b85010111156124dc57600080fd5b6020928301989097509590910135949350505050565b6000806040838503121561250557600080fd5b61250e836121e7565b91506123f2602084016121e7565b6000806040838503121561252f57600080fd5b823591506123f2602084016121e7565b600181811c9082168061255357607f821691505b6020821081141561257457634e487b7160e01b600052602260045260246000fd5b50919050565b634e487b7160e01b600052603260045260246000fd5b634e487b7160e01b600052601160045260246000fd5b60006000198214156125ba576125ba612590565b5060010190565b600082198211156125d4576125d4612590565b500190565b60008160001904831182151516156125f3576125f3612590565b500290565b60008451602061260b8285838a01612163565b85519184019161261e8184848a01612163565b8554920191600090600181811c908083168061263b57607f831692505b85831081141561265957634e487b7160e01b85526022600452602485fd5b80801561266d576001811461267e576126ab565b60ff198516885283880195506126ab565b60008b81526020902060005b858110156126a35781548a82015290840190880161268a565b505083880195505b50939b9a5050505050505050505050565b60006001600160a01b038087168352808616602084015250836040830152608060608301526126ee608083018461218f565b9695505050505050565b60006020828403121561270a57600080fd5b81516115f581612130565b634e487b7160e01b600052601260045260246000fd5b60008261273a5761273a612715565b500490565b60008282101561275157612751612590565b500390565b60008261276557612765612715565b50069056fe4f776e61626c653a2063616c6c6572206973206e6f7420746865206f776e6572a264697066735822122044f44614a424a2b53effe68ad07460389ee691c6b37834f03483a4a9fd6f8b4564736f6c634300080b0033",
  "linkReferences": {},
  "deployedLinkReferences": {}
}